{
	"array.sol": {
		"myArray": {
			"abi": [
				{
					"inputs": [
						{
							"internalType": "string",
							"name": "a",
							"type": "string"
						}
					],
					"name": "addStringElement",
					"outputs": [],
					"stateMutability": "nonpayable",
					"type": "function"
				},
				{
					"inputs": [
						{
							"internalType": "uint256",
							"name": "i",
							"type": "uint256"
						}
					],
					"name": "addUnintElement",
					"outputs": [],
					"stateMutability": "nonpayable",
					"type": "function"
				},
				{
					"inputs": [],
					"name": "arrayStringlenght",
					"outputs": [
						{
							"internalType": "uint256",
							"name": "",
							"type": "uint256"
						}
					],
					"stateMutability": "view",
					"type": "function"
				},
				{
					"inputs": [],
					"name": "arrayUintlenght",
					"outputs": [
						{
							"internalType": "uint256",
							"name": "",
							"type": "uint256"
						}
					],
					"stateMutability": "view",
					"type": "function"
				},
				{
					"inputs": [
						{
							"internalType": "uint256",
							"name": "",
							"type": "uint256"
						}
					],
					"name": "myStringArray",
					"outputs": [
						{
							"internalType": "string",
							"name": "",
							"type": "string"
						}
					],
					"stateMutability": "view",
					"type": "function"
				},
				{
					"inputs": [
						{
							"internalType": "uint256",
							"name": "",
							"type": "uint256"
						}
					],
					"name": "myUintarray",
					"outputs": [
						{
							"internalType": "uint256",
							"name": "",
							"type": "uint256"
						}
					],
					"stateMutability": "view",
					"type": "function"
				},
				{
					"inputs": [],
					"name": "removeStringElement",
					"outputs": [],
					"stateMutability": "nonpayable",
					"type": "function"
				},
				{
					"inputs": [],
					"name": "removeUnitElement",
					"outputs": [],
					"stateMutability": "nonpayable",
					"type": "function"
				}
			],
			"devdoc": {
				"kind": "dev",
				"methods": {},
				"version": 1
			},
			"evm": {
				"assembly": "    /* \"array.sol\":62:651  contract myArray {... */\n  mstore(0x40, 0x80)\n  callvalue\n  dup1\n  iszero\n  tag_1\n  jumpi\n  0x00\n  dup1\n  revert\ntag_1:\n  pop\n  dataSize(sub_0)\n  dup1\n  dataOffset(sub_0)\n  0x00\n  codecopy\n  0x00\n  return\nstop\n\nsub_0: assembly {\n        /* \"array.sol\":62:651  contract myArray {... */\n      mstore(0x40, 0x80)\n      callvalue\n      dup1\n      iszero\n      tag_1\n      jumpi\n      0x00\n      dup1\n      revert\n    tag_1:\n      pop\n      jumpi(tag_2, lt(calldatasize, 0x04))\n      shr(0xe0, calldataload(0x00))\n      dup1\n      0xaa3546d9\n      gt\n      tag_11\n      jumpi\n      dup1\n      0xaa3546d9\n      eq\n      tag_7\n      jumpi\n      dup1\n      0xbfa577db\n      eq\n      tag_8\n      jumpi\n      dup1\n      0xd83a2cb8\n      eq\n      tag_9\n      jumpi\n      dup1\n      0xe8d27b6a\n      eq\n      tag_10\n      jumpi\n      jump(tag_2)\n    tag_11:\n      dup1\n      0x16cfa714\n      eq\n      tag_3\n      jumpi\n      dup1\n      0x37bfa2d0\n      eq\n      tag_4\n      jumpi\n      dup1\n      0x6612bd84\n      eq\n      tag_5\n      jumpi\n      dup1\n      0x7140af2c\n      eq\n      tag_6\n      jumpi\n    tag_2:\n      0x00\n      dup1\n      revert\n        /* \"array.sol\":265:356  function arrayUintlenght() public view returns(uint256){... */\n    tag_3:\n      tag_12\n      tag_13\n      jump\t// in\n    tag_12:\n      mload(0x40)\n      tag_14\n      swap2\n      swap1\n      tag_15\n      jump\t// in\n    tag_14:\n      mload(0x40)\n      dup1\n      swap2\n      sub\n      swap1\n      return\n        /* \"array.sol\":551:646  function arrayStringlenght() public view returns(uint256){... */\n    tag_4:\n      tag_16\n      tag_17\n      jump\t// in\n    tag_16:\n      mload(0x40)\n      tag_18\n      swap2\n      swap1\n      tag_15\n      jump\t// in\n    tag_18:\n      mload(0x40)\n      dup1\n      swap2\n      sub\n      swap1\n      return\n        /* \"array.sol\":88:116  uint256[] public myUintarray */\n    tag_5:\n      tag_19\n      0x04\n      dup1\n      calldatasize\n      sub\n      dup2\n      add\n      swap1\n      tag_20\n      swap2\n      swap1\n      tag_21\n      jump\t// in\n    tag_20:\n      tag_22\n      jump\t// in\n    tag_19:\n      mload(0x40)\n      tag_23\n      swap2\n      swap1\n      tag_15\n      jump\t// in\n    tag_23:\n      mload(0x40)\n      dup1\n      swap2\n      sub\n      swap1\n      return\n        /* \"array.sol\":198:261  function removeUnitElement() public{... */\n    tag_6:\n      tag_24\n      tag_25\n      jump\t// in\n    tag_24:\n      stop\n        /* \"array.sol\":360:389  string[] public myStringArray */\n    tag_7:\n      tag_26\n      0x04\n      dup1\n      calldatasize\n      sub\n      dup2\n      add\n      swap1\n      tag_27\n      swap2\n      swap1\n      tag_21\n      jump\t// in\n    tag_27:\n      tag_28\n      jump\t// in\n    tag_26:\n      mload(0x40)\n      tag_29\n      swap2\n      swap1\n      tag_30\n      jump\t// in\n    tag_29:\n      mload(0x40)\n      dup1\n      swap2\n      sub\n      swap1\n      return\n        /* \"array.sol\":394:476  function addStringElement(string memory a) public {... */\n    tag_8:\n      tag_31\n      0x04\n      dup1\n      calldatasize\n      sub\n      dup2\n      add\n      swap1\n      tag_32\n      swap2\n      swap1\n      tag_33\n      jump\t// in\n    tag_32:\n      tag_34\n      jump\t// in\n    tag_31:\n      stop\n        /* \"array.sol\":480:547  function removeStringElement() public{... */\n    tag_9:\n      tag_35\n      tag_36\n      jump\t// in\n    tag_35:\n      stop\n        /* \"array.sol\":121:194  function addUnintElement(uint256 i) public {... */\n    tag_10:\n      tag_37\n      0x04\n      dup1\n      calldatasize\n      sub\n      dup2\n      add\n      swap1\n      tag_38\n      swap2\n      swap1\n      tag_21\n      jump\t// in\n    tag_38:\n      tag_39\n      jump\t// in\n    tag_37:\n      stop\n        /* \"array.sol\":265:356  function arrayUintlenght() public view returns(uint256){... */\n    tag_13:\n        /* \"array.sol\":312:319  uint256 */\n      0x00\n        /* \"array.sol\":334:345  myUintarray */\n      dup1\n        /* \"array.sol\":334:352  myUintarray.length */\n      dup1\n      sload\n      swap1\n      pop\n        /* \"array.sol\":327:352  return myUintarray.length */\n      swap1\n      pop\n        /* \"array.sol\":265:356  function arrayUintlenght() public view returns(uint256){... */\n      swap1\n      jump\t// out\n        /* \"array.sol\":551:646  function arrayStringlenght() public view returns(uint256){... */\n    tag_17:\n        /* \"array.sol\":600:607  uint256 */\n      0x00\n        /* \"array.sol\":622:635  myStringArray */\n      0x01\n        /* \"array.sol\":622:642  myStringArray.length */\n      dup1\n      sload\n      swap1\n      pop\n        /* \"array.sol\":615:642  return myStringArray.length */\n      swap1\n      pop\n        /* \"array.sol\":551:646  function arrayStringlenght() public view returns(uint256){... */\n      swap1\n      jump\t// out\n        /* \"array.sol\":88:116  uint256[] public myUintarray */\n    tag_22:\n      0x00\n      dup2\n      dup2\n      sload\n      dup2\n      lt\n      tag_42\n      jumpi\n      0x00\n      dup1\n      revert\n    tag_42:\n      swap1\n      0x00\n      mstore\n      keccak256(0x00, 0x20)\n      add\n      0x00\n      swap2\n      pop\n      swap1\n      pop\n      sload\n      dup2\n      jump\t// out\n        /* \"array.sol\":198:261  function removeUnitElement() public{... */\n    tag_25:\n        /* \"array.sol\":240:251  myUintarray */\n      0x00\n        /* \"array.sol\":240:257  myUintarray.pop() */\n      dup1\n      sload\n      dup1\n      tag_45\n      jumpi\n      tag_46\n      tag_47\n      jump\t// in\n    tag_46:\n    tag_45:\n      0x01\n      swap1\n      sub\n      dup2\n      dup2\n      swap1\n      0x00\n      mstore\n      keccak256(0x00, 0x20)\n      add\n      0x00\n      swap1\n      sstore\n      swap1\n      sstore\n        /* \"array.sol\":198:261  function removeUnitElement() public{... */\n      jump\t// out\n        /* \"array.sol\":360:389  string[] public myStringArray */\n    tag_28:\n      0x01\n      dup2\n      dup2\n      sload\n      dup2\n      lt\n      tag_49\n      jumpi\n      0x00\n      dup1\n      revert\n    tag_49:\n      swap1\n      0x00\n      mstore\n      keccak256(0x00, 0x20)\n      add\n      0x00\n      swap2\n      pop\n      swap1\n      pop\n      dup1\n      sload\n      tag_51\n      swap1\n      tag_52\n      jump\t// in\n    tag_51:\n      dup1\n      0x1f\n      add\n      0x20\n      dup1\n      swap2\n      div\n      mul\n      0x20\n      add\n      mload(0x40)\n      swap1\n      dup2\n      add\n      0x40\n      mstore\n      dup1\n      swap3\n      swap2\n      swap1\n      dup2\n      dup2\n      mstore\n      0x20\n      add\n      dup3\n      dup1\n      sload\n      tag_53\n      swap1\n      tag_52\n      jump\t// in\n    tag_53:\n      dup1\n      iszero\n      tag_54\n      jumpi\n      dup1\n      0x1f\n      lt\n      tag_55\n      jumpi\n      0x0100\n      dup1\n      dup4\n      sload\n      div\n      mul\n      dup4\n      mstore\n      swap2\n      0x20\n      add\n      swap2\n      jump(tag_54)\n    tag_55:\n      dup3\n      add\n      swap2\n      swap1\n      0x00\n      mstore\n      keccak256(0x00, 0x20)\n      swap1\n    tag_56:\n      dup2\n      sload\n      dup2\n      mstore\n      swap1\n      0x01\n      add\n      swap1\n      0x20\n      add\n      dup1\n      dup4\n      gt\n      tag_56\n      jumpi\n      dup3\n      swap1\n      sub\n      0x1f\n      and\n      dup3\n      add\n      swap2\n    tag_54:\n      pop\n      pop\n      pop\n      pop\n      pop\n      dup2\n      jump\t// out\n        /* \"array.sol\":394:476  function addStringElement(string memory a) public {... */\n    tag_34:\n        /* \"array.sol\":451:464  myStringArray */\n      0x01\n        /* \"array.sol\":470:471  a */\n      dup2\n        /* \"array.sol\":451:472  myStringArray.push(a) */\n      swap1\n      dup1\n      0x01\n      dup2\n      sload\n      add\n      dup1\n      dup3\n      sstore\n      dup1\n      swap2\n      pop\n      pop\n      0x01\n      swap1\n      sub\n      swap1\n      0x00\n      mstore\n      keccak256(0x00, 0x20)\n      add\n      0x00\n      swap1\n      swap2\n      swap1\n      swap2\n      swap1\n      swap2\n      pop\n      swap1\n      dup2\n      tag_59\n      swap2\n      swap1\n      tag_60\n      jump\t// in\n    tag_59:\n      pop\n        /* \"array.sol\":394:476  function addStringElement(string memory a) public {... */\n      pop\n      jump\t// out\n        /* \"array.sol\":480:547  function removeStringElement() public{... */\n    tag_36:\n        /* \"array.sol\":524:537  myStringArray */\n      0x01\n        /* \"array.sol\":524:543  myStringArray.pop() */\n      dup1\n      sload\n      dup1\n      tag_62\n      jumpi\n      tag_63\n      tag_47\n      jump\t// in\n    tag_63:\n    tag_62:\n      0x01\n      swap1\n      sub\n      dup2\n      dup2\n      swap1\n      0x00\n      mstore\n      keccak256(0x00, 0x20)\n      add\n      0x00\n      tag_65\n      swap2\n      swap1\n      tag_66\n      jump\t// in\n    tag_65:\n      swap1\n      sstore\n        /* \"array.sol\":480:547  function removeStringElement() public{... */\n      jump\t// out\n        /* \"array.sol\":121:194  function addUnintElement(uint256 i) public {... */\n    tag_39:\n        /* \"array.sol\":171:182  myUintarray */\n      0x00\n        /* \"array.sol\":188:189  i */\n      dup2\n        /* \"array.sol\":171:190  myUintarray.push(i) */\n      swap1\n      dup1\n      0x01\n      dup2\n      sload\n      add\n      dup1\n      dup3\n      sstore\n      dup1\n      swap2\n      pop\n      pop\n      0x01\n      swap1\n      sub\n      swap1\n      0x00\n      mstore\n      keccak256(0x00, 0x20)\n      add\n      0x00\n      swap1\n      swap2\n      swap1\n      swap2\n      swap1\n      swap2\n      pop\n      sstore\n        /* \"array.sol\":121:194  function addUnintElement(uint256 i) public {... */\n      pop\n      jump\t// out\n    tag_66:\n      pop\n      dup1\n      sload\n      tag_69\n      swap1\n      tag_52\n      jump\t// in\n    tag_69:\n      0x00\n      dup3\n      sstore\n      dup1\n      0x1f\n      lt\n      tag_71\n      jumpi\n      pop\n      jump(tag_70)\n    tag_71:\n      0x1f\n      add\n      0x20\n      swap1\n      div\n      swap1\n      0x00\n      mstore\n      keccak256(0x00, 0x20)\n      swap1\n      dup2\n      add\n      swap1\n      tag_72\n      swap2\n      swap1\n      tag_73\n      jump\t// in\n    tag_72:\n    tag_70:\n      pop\n      jump\t// out\n    tag_73:\n    tag_74:\n      dup1\n      dup3\n      gt\n      iszero\n      tag_75\n      jumpi\n      0x00\n      dup2\n      0x00\n      swap1\n      sstore\n      pop\n      0x01\n      add\n      jump(tag_74)\n    tag_75:\n      pop\n      swap1\n      jump\t// out\n        /* \"#utility.yul\":7:84   */\n    tag_76:\n        /* \"#utility.yul\":44:51   */\n      0x00\n        /* \"#utility.yul\":73:78   */\n      dup2\n        /* \"#utility.yul\":62:78   */\n      swap1\n      pop\n        /* \"#utility.yul\":7:84   */\n      swap2\n      swap1\n      pop\n      jump\t// out\n        /* \"#utility.yul\":90:208   */\n    tag_77:\n        /* \"#utility.yul\":177:201   */\n      tag_116\n        /* \"#utility.yul\":195:200   */\n      dup2\n        /* \"#utility.yul\":177:201   */\n      tag_76\n      jump\t// in\n    tag_116:\n        /* \"#utility.yul\":172:175   */\n      dup3\n        /* \"#utility.yul\":165:202   */\n      mstore\n        /* \"#utility.yul\":90:208   */\n      pop\n      pop\n      jump\t// out\n        /* \"#utility.yul\":214:436   */\n    tag_15:\n        /* \"#utility.yul\":307:311   */\n      0x00\n        /* \"#utility.yul\":345:347   */\n      0x20\n        /* \"#utility.yul\":334:343   */\n      dup3\n        /* \"#utility.yul\":330:348   */\n      add\n        /* \"#utility.yul\":322:348   */\n      swap1\n      pop\n        /* \"#utility.yul\":358:429   */\n      tag_118\n        /* \"#utility.yul\":426:427   */\n      0x00\n        /* \"#utility.yul\":415:424   */\n      dup4\n        /* \"#utility.yul\":411:428   */\n      add\n        /* \"#utility.yul\":402:408   */\n      dup5\n        /* \"#utility.yul\":358:429   */\n      tag_77\n      jump\t// in\n    tag_118:\n        /* \"#utility.yul\":214:436   */\n      swap3\n      swap2\n      pop\n      pop\n      jump\t// out\n        /* \"#utility.yul\":442:517   */\n    tag_78:\n        /* \"#utility.yul\":475:481   */\n      0x00\n        /* \"#utility.yul\":508:510   */\n      0x40\n        /* \"#utility.yul\":502:511   */\n      mload\n        /* \"#utility.yul\":492:511   */\n      swap1\n      pop\n        /* \"#utility.yul\":442:517   */\n      swap1\n      jump\t// out\n        /* \"#utility.yul\":523:640   */\n    tag_79:\n        /* \"#utility.yul\":632:633   */\n      0x00\n        /* \"#utility.yul\":629:630   */\n      dup1\n        /* \"#utility.yul\":622:634   */\n      revert\n        /* \"#utility.yul\":646:763   */\n    tag_80:\n        /* \"#utility.yul\":755:756   */\n      0x00\n        /* \"#utility.yul\":752:753   */\n      dup1\n        /* \"#utility.yul\":745:757   */\n      revert\n        /* \"#utility.yul\":769:891   */\n    tag_81:\n        /* \"#utility.yul\":842:866   */\n      tag_123\n        /* \"#utility.yul\":860:865   */\n      dup2\n        /* \"#utility.yul\":842:866   */\n      tag_76\n      jump\t// in\n    tag_123:\n        /* \"#utility.yul\":835:840   */\n      dup2\n        /* \"#utility.yul\":832:867   */\n      eq\n        /* \"#utility.yul\":822:885   */\n      tag_124\n      jumpi\n        /* \"#utility.yul\":881:882   */\n      0x00\n        /* \"#utility.yul\":878:879   */\n      dup1\n        /* \"#utility.yul\":871:883   */\n      revert\n        /* \"#utility.yul\":822:885   */\n    tag_124:\n        /* \"#utility.yul\":769:891   */\n      pop\n      jump\t// out\n        /* \"#utility.yul\":897:1036   */\n    tag_82:\n        /* \"#utility.yul\":943:948   */\n      0x00\n        /* \"#utility.yul\":981:987   */\n      dup2\n        /* \"#utility.yul\":968:988   */\n      calldataload\n        /* \"#utility.yul\":959:988   */\n      swap1\n      pop\n        /* \"#utility.yul\":997:1030   */\n      tag_126\n        /* \"#utility.yul\":1024:1029   */\n      dup2\n        /* \"#utility.yul\":997:1030   */\n      tag_81\n      jump\t// in\n    tag_126:\n        /* \"#utility.yul\":897:1036   */\n      swap3\n      swap2\n      pop\n      pop\n      jump\t// out\n        /* \"#utility.yul\":1042:1371   */\n    tag_21:\n        /* \"#utility.yul\":1101:1107   */\n      0x00\n        /* \"#utility.yul\":1150:1152   */\n      0x20\n        /* \"#utility.yul\":1138:1147   */\n      dup3\n        /* \"#utility.yul\":1129:1136   */\n      dup5\n        /* \"#utility.yul\":1125:1148   */\n      sub\n        /* \"#utility.yul\":1121:1153   */\n      slt\n        /* \"#utility.yul\":1118:1237   */\n      iszero\n      tag_128\n      jumpi\n        /* \"#utility.yul\":1156:1235   */\n      tag_129\n      tag_79\n      jump\t// in\n    tag_129:\n        /* \"#utility.yul\":1118:1237   */\n    tag_128:\n        /* \"#utility.yul\":1276:1277   */\n      0x00\n        /* \"#utility.yul\":1301:1354   */\n      tag_130\n        /* \"#utility.yul\":1346:1353   */\n      dup5\n        /* \"#utility.yul\":1337:1343   */\n      dup3\n        /* \"#utility.yul\":1326:1335   */\n      dup6\n        /* \"#utility.yul\":1322:1344   */\n      add\n        /* \"#utility.yul\":1301:1354   */\n      tag_82\n      jump\t// in\n    tag_130:\n        /* \"#utility.yul\":1291:1354   */\n      swap2\n      pop\n        /* \"#utility.yul\":1247:1364   */\n      pop\n        /* \"#utility.yul\":1042:1371   */\n      swap3\n      swap2\n      pop\n      pop\n      jump\t// out\n        /* \"#utility.yul\":1377:1476   */\n    tag_83:\n        /* \"#utility.yul\":1429:1435   */\n      0x00\n        /* \"#utility.yul\":1463:1468   */\n      dup2\n        /* \"#utility.yul\":1457:1469   */\n      mload\n        /* \"#utility.yul\":1447:1469   */\n      swap1\n      pop\n        /* \"#utility.yul\":1377:1476   */\n      swap2\n      swap1\n      pop\n      jump\t// out\n        /* \"#utility.yul\":1482:1651   */\n    tag_84:\n        /* \"#utility.yul\":1566:1577   */\n      0x00\n        /* \"#utility.yul\":1600:1606   */\n      dup3\n        /* \"#utility.yul\":1595:1598   */\n      dup3\n        /* \"#utility.yul\":1588:1607   */\n      mstore\n        /* \"#utility.yul\":1640:1644   */\n      0x20\n        /* \"#utility.yul\":1635:1638   */\n      dup3\n        /* \"#utility.yul\":1631:1645   */\n      add\n        /* \"#utility.yul\":1616:1645   */\n      swap1\n      pop\n        /* \"#utility.yul\":1482:1651   */\n      swap3\n      swap2\n      pop\n      pop\n      jump\t// out\n        /* \"#utility.yul\":1657:1796   */\n    tag_85:\n        /* \"#utility.yul\":1746:1752   */\n      dup3\n        /* \"#utility.yul\":1741:1744   */\n      dup2\n        /* \"#utility.yul\":1736:1739   */\n      dup4\n        /* \"#utility.yul\":1730:1753   */\n      mcopy\n        /* \"#utility.yul\":1787:1788   */\n      0x00\n        /* \"#utility.yul\":1778:1784   */\n      dup4\n        /* \"#utility.yul\":1773:1776   */\n      dup4\n        /* \"#utility.yul\":1769:1785   */\n      add\n        /* \"#utility.yul\":1762:1789   */\n      mstore\n        /* \"#utility.yul\":1657:1796   */\n      pop\n      pop\n      pop\n      jump\t// out\n        /* \"#utility.yul\":1802:1904   */\n    tag_86:\n        /* \"#utility.yul\":1843:1849   */\n      0x00\n        /* \"#utility.yul\":1894:1896   */\n      0x1f\n        /* \"#utility.yul\":1890:1897   */\n      not\n        /* \"#utility.yul\":1885:1887   */\n      0x1f\n        /* \"#utility.yul\":1878:1883   */\n      dup4\n        /* \"#utility.yul\":1874:1888   */\n      add\n        /* \"#utility.yul\":1870:1898   */\n      and\n        /* \"#utility.yul\":1860:1898   */\n      swap1\n      pop\n        /* \"#utility.yul\":1802:1904   */\n      swap2\n      swap1\n      pop\n      jump\t// out\n        /* \"#utility.yul\":1910:2287   */\n    tag_87:\n        /* \"#utility.yul\":1998:2001   */\n      0x00\n        /* \"#utility.yul\":2026:2065   */\n      tag_136\n        /* \"#utility.yul\":2059:2064   */\n      dup3\n        /* \"#utility.yul\":2026:2065   */\n      tag_83\n      jump\t// in\n    tag_136:\n        /* \"#utility.yul\":2081:2152   */\n      tag_137\n        /* \"#utility.yul\":2145:2151   */\n      dup2\n        /* \"#utility.yul\":2140:2143   */\n      dup6\n        /* \"#utility.yul\":2081:2152   */\n      tag_84\n      jump\t// in\n    tag_137:\n        /* \"#utility.yul\":2074:2152   */\n      swap4\n      pop\n        /* \"#utility.yul\":2161:2226   */\n      tag_138\n        /* \"#utility.yul\":2219:2225   */\n      dup2\n        /* \"#utility.yul\":2214:2217   */\n      dup6\n        /* \"#utility.yul\":2207:2211   */\n      0x20\n        /* \"#utility.yul\":2200:2205   */\n      dup7\n        /* \"#utility.yul\":2196:2212   */\n      add\n        /* \"#utility.yul\":2161:2226   */\n      tag_85\n      jump\t// in\n    tag_138:\n        /* \"#utility.yul\":2251:2280   */\n      tag_139\n        /* \"#utility.yul\":2273:2279   */\n      dup2\n        /* \"#utility.yul\":2251:2280   */\n      tag_86\n      jump\t// in\n    tag_139:\n        /* \"#utility.yul\":2246:2249   */\n      dup5\n        /* \"#utility.yul\":2242:2281   */\n      add\n        /* \"#utility.yul\":2235:2281   */\n      swap2\n      pop\n        /* \"#utility.yul\":2002:2287   */\n      pop\n        /* \"#utility.yul\":1910:2287   */\n      swap3\n      swap2\n      pop\n      pop\n      jump\t// out\n        /* \"#utility.yul\":2293:2606   */\n    tag_30:\n        /* \"#utility.yul\":2406:2410   */\n      0x00\n        /* \"#utility.yul\":2444:2446   */\n      0x20\n        /* \"#utility.yul\":2433:2442   */\n      dup3\n        /* \"#utility.yul\":2429:2447   */\n      add\n        /* \"#utility.yul\":2421:2447   */\n      swap1\n      pop\n        /* \"#utility.yul\":2493:2502   */\n      dup2\n        /* \"#utility.yul\":2487:2491   */\n      dup2\n        /* \"#utility.yul\":2483:2503   */\n      sub\n        /* \"#utility.yul\":2479:2480   */\n      0x00\n        /* \"#utility.yul\":2468:2477   */\n      dup4\n        /* \"#utility.yul\":2464:2481   */\n      add\n        /* \"#utility.yul\":2457:2504   */\n      mstore\n        /* \"#utility.yul\":2521:2599   */\n      tag_141\n        /* \"#utility.yul\":2594:2598   */\n      dup2\n        /* \"#utility.yul\":2585:2591   */\n      dup5\n        /* \"#utility.yul\":2521:2599   */\n      tag_87\n      jump\t// in\n    tag_141:\n        /* \"#utility.yul\":2513:2599   */\n      swap1\n      pop\n        /* \"#utility.yul\":2293:2606   */\n      swap3\n      swap2\n      pop\n      pop\n      jump\t// out\n        /* \"#utility.yul\":2612:2729   */\n    tag_88:\n        /* \"#utility.yul\":2721:2722   */\n      0x00\n        /* \"#utility.yul\":2718:2719   */\n      dup1\n        /* \"#utility.yul\":2711:2723   */\n      revert\n        /* \"#utility.yul\":2735:2852   */\n    tag_89:\n        /* \"#utility.yul\":2844:2845   */\n      0x00\n        /* \"#utility.yul\":2841:2842   */\n      dup1\n        /* \"#utility.yul\":2834:2846   */\n      revert\n        /* \"#utility.yul\":2858:3038   */\n    tag_90:\n        /* \"#utility.yul\":2906:2983   */\n      0x4e487b7100000000000000000000000000000000000000000000000000000000\n        /* \"#utility.yul\":2903:2904   */\n      0x00\n        /* \"#utility.yul\":2896:2984   */\n      mstore\n        /* \"#utility.yul\":3003:3007   */\n      0x41\n        /* \"#utility.yul\":3000:3001   */\n      0x04\n        /* \"#utility.yul\":2993:3008   */\n      mstore\n        /* \"#utility.yul\":3027:3031   */\n      0x24\n        /* \"#utility.yul\":3024:3025   */\n      0x00\n        /* \"#utility.yul\":3017:3032   */\n      revert\n        /* \"#utility.yul\":3044:3325   */\n    tag_91:\n        /* \"#utility.yul\":3127:3154   */\n      tag_146\n        /* \"#utility.yul\":3149:3153   */\n      dup3\n        /* \"#utility.yul\":3127:3154   */\n      tag_86\n      jump\t// in\n    tag_146:\n        /* \"#utility.yul\":3119:3125   */\n      dup2\n        /* \"#utility.yul\":3115:3155   */\n      add\n        /* \"#utility.yul\":3257:3263   */\n      dup2\n        /* \"#utility.yul\":3245:3255   */\n      dup2\n        /* \"#utility.yul\":3242:3264   */\n      lt\n        /* \"#utility.yul\":3221:3239   */\n      0xffffffffffffffff\n        /* \"#utility.yul\":3209:3219   */\n      dup3\n        /* \"#utility.yul\":3206:3240   */\n      gt\n        /* \"#utility.yul\":3203:3265   */\n      or\n        /* \"#utility.yul\":3200:3288   */\n      iszero\n      tag_147\n      jumpi\n        /* \"#utility.yul\":3268:3286   */\n      tag_148\n      tag_90\n      jump\t// in\n    tag_148:\n        /* \"#utility.yul\":3200:3288   */\n    tag_147:\n        /* \"#utility.yul\":3308:3318   */\n      dup1\n        /* \"#utility.yul\":3304:3306   */\n      0x40\n        /* \"#utility.yul\":3297:3319   */\n      mstore\n        /* \"#utility.yul\":3087:3325   */\n      pop\n        /* \"#utility.yul\":3044:3325   */\n      pop\n      pop\n      jump\t// out\n        /* \"#utility.yul\":3331:3460   */\n    tag_92:\n        /* \"#utility.yul\":3365:3371   */\n      0x00\n        /* \"#utility.yul\":3392:3412   */\n      tag_150\n      tag_78\n      jump\t// in\n    tag_150:\n        /* \"#utility.yul\":3382:3412   */\n      swap1\n      pop\n        /* \"#utility.yul\":3421:3454   */\n      tag_151\n        /* \"#utility.yul\":3449:3453   */\n      dup3\n        /* \"#utility.yul\":3441:3447   */\n      dup3\n        /* \"#utility.yul\":3421:3454   */\n      tag_91\n      jump\t// in\n    tag_151:\n        /* \"#utility.yul\":3331:3460   */\n      swap2\n      swap1\n      pop\n      jump\t// out\n        /* \"#utility.yul\":3466:3774   */\n    tag_93:\n        /* \"#utility.yul\":3528:3532   */\n      0x00\n        /* \"#utility.yul\":3618:3636   */\n      0xffffffffffffffff\n        /* \"#utility.yul\":3610:3616   */\n      dup3\n        /* \"#utility.yul\":3607:3637   */\n      gt\n        /* \"#utility.yul\":3604:3660   */\n      iszero\n      tag_153\n      jumpi\n        /* \"#utility.yul\":3640:3658   */\n      tag_154\n      tag_90\n      jump\t// in\n    tag_154:\n        /* \"#utility.yul\":3604:3660   */\n    tag_153:\n        /* \"#utility.yul\":3678:3707   */\n      tag_155\n        /* \"#utility.yul\":3700:3706   */\n      dup3\n        /* \"#utility.yul\":3678:3707   */\n      tag_86\n      jump\t// in\n    tag_155:\n        /* \"#utility.yul\":3670:3707   */\n      swap1\n      pop\n        /* \"#utility.yul\":3762:3766   */\n      0x20\n        /* \"#utility.yul\":3756:3760   */\n      dup2\n        /* \"#utility.yul\":3752:3767   */\n      add\n        /* \"#utility.yul\":3744:3767   */\n      swap1\n      pop\n        /* \"#utility.yul\":3466:3774   */\n      swap2\n      swap1\n      pop\n      jump\t// out\n        /* \"#utility.yul\":3780:3928   */\n    tag_94:\n        /* \"#utility.yul\":3878:3884   */\n      dup3\n        /* \"#utility.yul\":3873:3876   */\n      dup2\n        /* \"#utility.yul\":3868:3871   */\n      dup4\n        /* \"#utility.yul\":3855:3885   */\n      calldatacopy\n        /* \"#utility.yul\":3919:3920   */\n      0x00\n        /* \"#utility.yul\":3910:3916   */\n      dup4\n        /* \"#utility.yul\":3905:3908   */\n      dup4\n        /* \"#utility.yul\":3901:3917   */\n      add\n        /* \"#utility.yul\":3894:3921   */\n      mstore\n        /* \"#utility.yul\":3780:3928   */\n      pop\n      pop\n      pop\n      jump\t// out\n        /* \"#utility.yul\":3934:4359   */\n    tag_95:\n        /* \"#utility.yul\":4012:4017   */\n      0x00\n        /* \"#utility.yul\":4037:4103   */\n      tag_158\n        /* \"#utility.yul\":4053:4102   */\n      tag_159\n        /* \"#utility.yul\":4095:4101   */\n      dup5\n        /* \"#utility.yul\":4053:4102   */\n      tag_93\n      jump\t// in\n    tag_159:\n        /* \"#utility.yul\":4037:4103   */\n      tag_92\n      jump\t// in\n    tag_158:\n        /* \"#utility.yul\":4028:4103   */\n      swap1\n      pop\n        /* \"#utility.yul\":4126:4132   */\n      dup3\n        /* \"#utility.yul\":4119:4124   */\n      dup2\n        /* \"#utility.yul\":4112:4133   */\n      mstore\n        /* \"#utility.yul\":4164:4168   */\n      0x20\n        /* \"#utility.yul\":4157:4162   */\n      dup2\n        /* \"#utility.yul\":4153:4169   */\n      add\n        /* \"#utility.yul\":4202:4205   */\n      dup5\n        /* \"#utility.yul\":4193:4199   */\n      dup5\n        /* \"#utility.yul\":4188:4191   */\n      dup5\n        /* \"#utility.yul\":4184:4200   */\n      add\n        /* \"#utility.yul\":4181:4206   */\n      gt\n        /* \"#utility.yul\":4178:4290   */\n      iszero\n      tag_160\n      jumpi\n        /* \"#utility.yul\":4209:4288   */\n      tag_161\n      tag_89\n      jump\t// in\n    tag_161:\n        /* \"#utility.yul\":4178:4290   */\n    tag_160:\n        /* \"#utility.yul\":4299:4353   */\n      tag_162\n        /* \"#utility.yul\":4346:4352   */\n      dup5\n        /* \"#utility.yul\":4341:4344   */\n      dup3\n        /* \"#utility.yul\":4336:4339   */\n      dup6\n        /* \"#utility.yul\":4299:4353   */\n      tag_94\n      jump\t// in\n    tag_162:\n        /* \"#utility.yul\":4018:4359   */\n      pop\n        /* \"#utility.yul\":3934:4359   */\n      swap4\n      swap3\n      pop\n      pop\n      pop\n      jump\t// out\n        /* \"#utility.yul\":4379:4719   */\n    tag_96:\n        /* \"#utility.yul\":4435:4440   */\n      0x00\n        /* \"#utility.yul\":4484:4487   */\n      dup3\n        /* \"#utility.yul\":4477:4481   */\n      0x1f\n        /* \"#utility.yul\":4469:4475   */\n      dup4\n        /* \"#utility.yul\":4465:4482   */\n      add\n        /* \"#utility.yul\":4461:4488   */\n      slt\n        /* \"#utility.yul\":4451:4573   */\n      tag_164\n      jumpi\n        /* \"#utility.yul\":4492:4571   */\n      tag_165\n      tag_88\n      jump\t// in\n    tag_165:\n        /* \"#utility.yul\":4451:4573   */\n    tag_164:\n        /* \"#utility.yul\":4609:4615   */\n      dup2\n        /* \"#utility.yul\":4596:4616   */\n      calldataload\n        /* \"#utility.yul\":4634:4713   */\n      tag_166\n        /* \"#utility.yul\":4709:4712   */\n      dup5\n        /* \"#utility.yul\":4701:4707   */\n      dup3\n        /* \"#utility.yul\":4694:4698   */\n      0x20\n        /* \"#utility.yul\":4686:4692   */\n      dup7\n        /* \"#utility.yul\":4682:4699   */\n      add\n        /* \"#utility.yul\":4634:4713   */\n      tag_95\n      jump\t// in\n    tag_166:\n        /* \"#utility.yul\":4625:4713   */\n      swap2\n      pop\n        /* \"#utility.yul\":4441:4719   */\n      pop\n        /* \"#utility.yul\":4379:4719   */\n      swap3\n      swap2\n      pop\n      pop\n      jump\t// out\n        /* \"#utility.yul\":4725:5234   */\n    tag_33:\n        /* \"#utility.yul\":4794:4800   */\n      0x00\n        /* \"#utility.yul\":4843:4845   */\n      0x20\n        /* \"#utility.yul\":4831:4840   */\n      dup3\n        /* \"#utility.yul\":4822:4829   */\n      dup5\n        /* \"#utility.yul\":4818:4841   */\n      sub\n        /* \"#utility.yul\":4814:4846   */\n      slt\n        /* \"#utility.yul\":4811:4930   */\n      iszero\n      tag_168\n      jumpi\n        /* \"#utility.yul\":4849:4928   */\n      tag_169\n      tag_79\n      jump\t// in\n    tag_169:\n        /* \"#utility.yul\":4811:4930   */\n    tag_168:\n        /* \"#utility.yul\":4997:4998   */\n      0x00\n        /* \"#utility.yul\":4986:4995   */\n      dup3\n        /* \"#utility.yul\":4982:4999   */\n      add\n        /* \"#utility.yul\":4969:5000   */\n      calldataload\n        /* \"#utility.yul\":5027:5045   */\n      0xffffffffffffffff\n        /* \"#utility.yul\":5019:5025   */\n      dup2\n        /* \"#utility.yul\":5016:5046   */\n      gt\n        /* \"#utility.yul\":5013:5130   */\n      iszero\n      tag_170\n      jumpi\n        /* \"#utility.yul\":5049:5128   */\n      tag_171\n      tag_80\n      jump\t// in\n    tag_171:\n        /* \"#utility.yul\":5013:5130   */\n    tag_170:\n        /* \"#utility.yul\":5154:5217   */\n      tag_172\n        /* \"#utility.yul\":5209:5216   */\n      dup5\n        /* \"#utility.yul\":5200:5206   */\n      dup3\n        /* \"#utility.yul\":5189:5198   */\n      dup6\n        /* \"#utility.yul\":5185:5207   */\n      add\n        /* \"#utility.yul\":5154:5217   */\n      tag_96\n      jump\t// in\n    tag_172:\n        /* \"#utility.yul\":5144:5217   */\n      swap2\n      pop\n        /* \"#utility.yul\":4940:5227   */\n      pop\n        /* \"#utility.yul\":4725:5234   */\n      swap3\n      swap2\n      pop\n      pop\n      jump\t// out\n        /* \"#utility.yul\":5240:5420   */\n    tag_47:\n        /* \"#utility.yul\":5288:5365   */\n      0x4e487b7100000000000000000000000000000000000000000000000000000000\n        /* \"#utility.yul\":5285:5286   */\n      0x00\n        /* \"#utility.yul\":5278:5366   */\n      mstore\n        /* \"#utility.yul\":5385:5389   */\n      0x31\n        /* \"#utility.yul\":5382:5383   */\n      0x04\n        /* \"#utility.yul\":5375:5390   */\n      mstore\n        /* \"#utility.yul\":5409:5413   */\n      0x24\n        /* \"#utility.yul\":5406:5407   */\n      0x00\n        /* \"#utility.yul\":5399:5414   */\n      revert\n        /* \"#utility.yul\":5426:5606   */\n    tag_97:\n        /* \"#utility.yul\":5474:5551   */\n      0x4e487b7100000000000000000000000000000000000000000000000000000000\n        /* \"#utility.yul\":5471:5472   */\n      0x00\n        /* \"#utility.yul\":5464:5552   */\n      mstore\n        /* \"#utility.yul\":5571:5575   */\n      0x22\n        /* \"#utility.yul\":5568:5569   */\n      0x04\n        /* \"#utility.yul\":5561:5576   */\n      mstore\n        /* \"#utility.yul\":5595:5599   */\n      0x24\n        /* \"#utility.yul\":5592:5593   */\n      0x00\n        /* \"#utility.yul\":5585:5600   */\n      revert\n        /* \"#utility.yul\":5612:5932   */\n    tag_52:\n        /* \"#utility.yul\":5656:5662   */\n      0x00\n        /* \"#utility.yul\":5693:5694   */\n      0x02\n        /* \"#utility.yul\":5687:5691   */\n      dup3\n        /* \"#utility.yul\":5683:5695   */\n      div\n        /* \"#utility.yul\":5673:5695   */\n      swap1\n      pop\n        /* \"#utility.yul\":5740:5741   */\n      0x01\n        /* \"#utility.yul\":5734:5738   */\n      dup3\n        /* \"#utility.yul\":5730:5742   */\n      and\n        /* \"#utility.yul\":5761:5779   */\n      dup1\n        /* \"#utility.yul\":5751:5832   */\n      tag_176\n      jumpi\n        /* \"#utility.yul\":5817:5821   */\n      0x7f\n        /* \"#utility.yul\":5809:5815   */\n      dup3\n        /* \"#utility.yul\":5805:5822   */\n      and\n        /* \"#utility.yul\":5795:5822   */\n      swap2\n      pop\n        /* \"#utility.yul\":5751:5832   */\n    tag_176:\n        /* \"#utility.yul\":5879:5881   */\n      0x20\n        /* \"#utility.yul\":5871:5877   */\n      dup3\n        /* \"#utility.yul\":5868:5882   */\n      lt\n        /* \"#utility.yul\":5848:5866   */\n      dup2\n        /* \"#utility.yul\":5845:5883   */\n      sub\n        /* \"#utility.yul\":5842:5926   */\n      tag_177\n      jumpi\n        /* \"#utility.yul\":5898:5916   */\n      tag_178\n      tag_97\n      jump\t// in\n    tag_178:\n        /* \"#utility.yul\":5842:5926   */\n    tag_177:\n        /* \"#utility.yul\":5663:5932   */\n      pop\n        /* \"#utility.yul\":5612:5932   */\n      swap2\n      swap1\n      pop\n      jump\t// out\n        /* \"#utility.yul\":5938:6079   */\n    tag_98:\n        /* \"#utility.yul\":5987:5991   */\n      0x00\n        /* \"#utility.yul\":6010:6013   */\n      dup2\n        /* \"#utility.yul\":6002:6013   */\n      swap1\n      pop\n        /* \"#utility.yul\":6033:6036   */\n      dup2\n        /* \"#utility.yul\":6030:6031   */\n      0x00\n        /* \"#utility.yul\":6023:6037   */\n      mstore\n        /* \"#utility.yul\":6067:6071   */\n      0x20\n        /* \"#utility.yul\":6064:6065   */\n      0x00\n        /* \"#utility.yul\":6054:6072   */\n      keccak256\n        /* \"#utility.yul\":6046:6072   */\n      swap1\n      pop\n        /* \"#utility.yul\":5938:6079   */\n      swap2\n      swap1\n      pop\n      jump\t// out\n        /* \"#utility.yul\":6085:6178   */\n    tag_99:\n        /* \"#utility.yul\":6122:6128   */\n      0x00\n        /* \"#utility.yul\":6169:6171   */\n      0x20\n        /* \"#utility.yul\":6164:6166   */\n      0x1f\n        /* \"#utility.yul\":6157:6162   */\n      dup4\n        /* \"#utility.yul\":6153:6167   */\n      add\n        /* \"#utility.yul\":6149:6172   */\n      div\n        /* \"#utility.yul\":6139:6172   */\n      swap1\n      pop\n        /* \"#utility.yul\":6085:6178   */\n      swap2\n      swap1\n      pop\n      jump\t// out\n        /* \"#utility.yul\":6184:6291   */\n    tag_100:\n        /* \"#utility.yul\":6228:6236   */\n      0x00\n        /* \"#utility.yul\":6278:6283   */\n      dup3\n        /* \"#utility.yul\":6272:6276   */\n      dup3\n        /* \"#utility.yul\":6268:6284   */\n      shl\n        /* \"#utility.yul\":6247:6284   */\n      swap1\n      pop\n        /* \"#utility.yul\":6184:6291   */\n      swap3\n      swap2\n      pop\n      pop\n      jump\t// out\n        /* \"#utility.yul\":6297:6690   */\n    tag_101:\n        /* \"#utility.yul\":6366:6372   */\n      0x00\n        /* \"#utility.yul\":6416:6417   */\n      0x08\n        /* \"#utility.yul\":6404:6414   */\n      dup4\n        /* \"#utility.yul\":6400:6418   */\n      mul\n        /* \"#utility.yul\":6439:6536   */\n      tag_183\n        /* \"#utility.yul\":6469:6535   */\n      0xffffffffffffffffffffffffffffffffffffffffffffffffffffffffffffffff\n        /* \"#utility.yul\":6458:6467   */\n      dup3\n        /* \"#utility.yul\":6439:6536   */\n      tag_100\n      jump\t// in\n    tag_183:\n        /* \"#utility.yul\":6557:6596   */\n      tag_184\n        /* \"#utility.yul\":6587:6595   */\n      dup7\n        /* \"#utility.yul\":6576:6585   */\n      dup4\n        /* \"#utility.yul\":6557:6596   */\n      tag_100\n      jump\t// in\n    tag_184:\n        /* \"#utility.yul\":6545:6596   */\n      swap6\n      pop\n        /* \"#utility.yul\":6629:6633   */\n      dup1\n        /* \"#utility.yul\":6625:6634   */\n      not\n        /* \"#utility.yul\":6618:6623   */\n      dup5\n        /* \"#utility.yul\":6614:6635   */\n      and\n        /* \"#utility.yul\":6605:6635   */\n      swap4\n      pop\n        /* \"#utility.yul\":6678:6682   */\n      dup1\n        /* \"#utility.yul\":6668:6676   */\n      dup7\n        /* \"#utility.yul\":6664:6683   */\n      and\n        /* \"#utility.yul\":6657:6662   */\n      dup5\n        /* \"#utility.yul\":6654:6684   */\n      or\n        /* \"#utility.yul\":6644:6684   */\n      swap3\n      pop\n        /* \"#utility.yul\":6373:6690   */\n      pop\n      pop\n        /* \"#utility.yul\":6297:6690   */\n      swap4\n      swap3\n      pop\n      pop\n      pop\n      jump\t// out\n        /* \"#utility.yul\":6696:6756   */\n    tag_102:\n        /* \"#utility.yul\":6724:6727   */\n      0x00\n        /* \"#utility.yul\":6745:6750   */\n      dup2\n        /* \"#utility.yul\":6738:6750   */\n      swap1\n      pop\n        /* \"#utility.yul\":6696:6756   */\n      swap2\n      swap1\n      pop\n      jump\t// out\n        /* \"#utility.yul\":6762:6904   */\n    tag_103:\n        /* \"#utility.yul\":6812:6821   */\n      0x00\n        /* \"#utility.yul\":6845:6898   */\n      tag_187\n        /* \"#utility.yul\":6863:6897   */\n      tag_188\n        /* \"#utility.yul\":6872:6896   */\n      tag_189\n        /* \"#utility.yul\":6890:6895   */\n      dup5\n        /* \"#utility.yul\":6872:6896   */\n      tag_76\n      jump\t// in\n    tag_189:\n        /* \"#utility.yul\":6863:6897   */\n      tag_102\n      jump\t// in\n    tag_188:\n        /* \"#utility.yul\":6845:6898   */\n      tag_76\n      jump\t// in\n    tag_187:\n        /* \"#utility.yul\":6832:6898   */\n      swap1\n      pop\n        /* \"#utility.yul\":6762:6904   */\n      swap2\n      swap1\n      pop\n      jump\t// out\n        /* \"#utility.yul\":6910:6985   */\n    tag_104:\n        /* \"#utility.yul\":6953:6956   */\n      0x00\n        /* \"#utility.yul\":6974:6979   */\n      dup2\n        /* \"#utility.yul\":6967:6979   */\n      swap1\n      pop\n        /* \"#utility.yul\":6910:6985   */\n      swap2\n      swap1\n      pop\n      jump\t// out\n        /* \"#utility.yul\":6991:7260   */\n    tag_105:\n        /* \"#utility.yul\":7101:7140   */\n      tag_192\n        /* \"#utility.yul\":7132:7139   */\n      dup4\n        /* \"#utility.yul\":7101:7140   */\n      tag_103\n      jump\t// in\n    tag_192:\n        /* \"#utility.yul\":7162:7253   */\n      tag_193\n        /* \"#utility.yul\":7211:7252   */\n      tag_194\n        /* \"#utility.yul\":7235:7251   */\n      dup3\n        /* \"#utility.yul\":7211:7252   */\n      tag_104\n      jump\t// in\n    tag_194:\n        /* \"#utility.yul\":7203:7209   */\n      dup5\n        /* \"#utility.yul\":7196:7200   */\n      dup5\n        /* \"#utility.yul\":7190:7201   */\n      sload\n        /* \"#utility.yul\":7162:7253   */\n      tag_101\n      jump\t// in\n    tag_193:\n        /* \"#utility.yul\":7156:7160   */\n      dup3\n        /* \"#utility.yul\":7149:7254   */\n      sstore\n        /* \"#utility.yul\":7067:7260   */\n      pop\n        /* \"#utility.yul\":6991:7260   */\n      pop\n      pop\n      pop\n      jump\t// out\n        /* \"#utility.yul\":7266:7339   */\n    tag_106:\n        /* \"#utility.yul\":7311:7314   */\n      0x00\n        /* \"#utility.yul\":7266:7339   */\n      swap1\n      jump\t// out\n        /* \"#utility.yul\":7345:7534   */\n    tag_107:\n        /* \"#utility.yul\":7422:7454   */\n      tag_197\n      tag_106\n      jump\t// in\n    tag_197:\n        /* \"#utility.yul\":7463:7528   */\n      tag_198\n        /* \"#utility.yul\":7521:7527   */\n      dup2\n        /* \"#utility.yul\":7513:7519   */\n      dup5\n        /* \"#utility.yul\":7507:7511   */\n      dup5\n        /* \"#utility.yul\":7463:7528   */\n      tag_105\n      jump\t// in\n    tag_198:\n        /* \"#utility.yul\":7398:7534   */\n      pop\n        /* \"#utility.yul\":7345:7534   */\n      pop\n      pop\n      jump\t// out\n        /* \"#utility.yul\":7540:7726   */\n    tag_108:\n        /* \"#utility.yul\":7600:7720   */\n    tag_200:\n        /* \"#utility.yul\":7617:7620   */\n      dup2\n        /* \"#utility.yul\":7610:7615   */\n      dup2\n        /* \"#utility.yul\":7607:7621   */\n      lt\n        /* \"#utility.yul\":7600:7720   */\n      iszero\n      tag_202\n      jumpi\n        /* \"#utility.yul\":7671:7710   */\n      tag_203\n        /* \"#utility.yul\":7708:7709   */\n      0x00\n        /* \"#utility.yul\":7701:7706   */\n      dup3\n        /* \"#utility.yul\":7671:7710   */\n      tag_107\n      jump\t// in\n    tag_203:\n        /* \"#utility.yul\":7644:7645   */\n      0x01\n        /* \"#utility.yul\":7637:7642   */\n      dup2\n        /* \"#utility.yul\":7633:7646   */\n      add\n        /* \"#utility.yul\":7624:7646   */\n      swap1\n      pop\n        /* \"#utility.yul\":7600:7720   */\n      jump(tag_200)\n    tag_202:\n        /* \"#utility.yul\":7540:7726   */\n      pop\n      pop\n      jump\t// out\n        /* \"#utility.yul\":7732:8275   */\n    tag_109:\n        /* \"#utility.yul\":7833:7835   */\n      0x1f\n        /* \"#utility.yul\":7828:7831   */\n      dup3\n        /* \"#utility.yul\":7825:7836   */\n      gt\n        /* \"#utility.yul\":7822:8268   */\n      iszero\n      tag_205\n      jumpi\n        /* \"#utility.yul\":7867:7905   */\n      tag_206\n        /* \"#utility.yul\":7899:7904   */\n      dup2\n        /* \"#utility.yul\":7867:7905   */\n      tag_98\n      jump\t// in\n    tag_206:\n        /* \"#utility.yul\":7951:7980   */\n      tag_207\n        /* \"#utility.yul\":7969:7979   */\n      dup5\n        /* \"#utility.yul\":7951:7980   */\n      tag_99\n      jump\t// in\n    tag_207:\n        /* \"#utility.yul\":7941:7949   */\n      dup2\n        /* \"#utility.yul\":7937:7981   */\n      add\n        /* \"#utility.yul\":8134:8136   */\n      0x20\n        /* \"#utility.yul\":8122:8132   */\n      dup6\n        /* \"#utility.yul\":8119:8137   */\n      lt\n        /* \"#utility.yul\":8116:8165   */\n      iszero\n      tag_208\n      jumpi\n        /* \"#utility.yul\":8155:8163   */\n      dup2\n        /* \"#utility.yul\":8140:8163   */\n      swap1\n      pop\n        /* \"#utility.yul\":8116:8165   */\n    tag_208:\n        /* \"#utility.yul\":8178:8258   */\n      tag_209\n        /* \"#utility.yul\":8234:8256   */\n      tag_210\n        /* \"#utility.yul\":8252:8255   */\n      dup6\n        /* \"#utility.yul\":8234:8256   */\n      tag_99\n      jump\t// in\n    tag_210:\n        /* \"#utility.yul\":8224:8232   */\n      dup4\n        /* \"#utility.yul\":8220:8257   */\n      add\n        /* \"#utility.yul\":8207:8218   */\n      dup3\n        /* \"#utility.yul\":8178:8258   */\n      tag_108\n      jump\t// in\n    tag_209:\n        /* \"#utility.yul\":7837:8268   */\n      pop\n      pop\n        /* \"#utility.yul\":7822:8268   */\n    tag_205:\n        /* \"#utility.yul\":7732:8275   */\n      pop\n      pop\n      pop\n      jump\t// out\n        /* \"#utility.yul\":8281:8398   */\n    tag_110:\n        /* \"#utility.yul\":8335:8343   */\n      0x00\n        /* \"#utility.yul\":8385:8390   */\n      dup3\n        /* \"#utility.yul\":8379:8383   */\n      dup3\n        /* \"#utility.yul\":8375:8391   */\n      shr\n        /* \"#utility.yul\":8354:8391   */\n      swap1\n      pop\n        /* \"#utility.yul\":8281:8398   */\n      swap3\n      swap2\n      pop\n      pop\n      jump\t// out\n        /* \"#utility.yul\":8404:8573   */\n    tag_111:\n        /* \"#utility.yul\":8448:8454   */\n      0x00\n        /* \"#utility.yul\":8481:8532   */\n      tag_213\n        /* \"#utility.yul\":8529:8530   */\n      0x00\n        /* \"#utility.yul\":8525:8531   */\n      not\n        /* \"#utility.yul\":8517:8522   */\n      dup5\n        /* \"#utility.yul\":8514:8515   */\n      0x08\n        /* \"#utility.yul\":8510:8523   */\n      mul\n        /* \"#utility.yul\":8481:8532   */\n      tag_110\n      jump\t// in\n    tag_213:\n        /* \"#utility.yul\":8477:8533   */\n      not\n        /* \"#utility.yul\":8562:8566   */\n      dup1\n        /* \"#utility.yul\":8556:8560   */\n      dup4\n        /* \"#utility.yul\":8552:8567   */\n      and\n        /* \"#utility.yul\":8542:8567   */\n      swap2\n      pop\n        /* \"#utility.yul\":8455:8573   */\n      pop\n        /* \"#utility.yul\":8404:8573   */\n      swap3\n      swap2\n      pop\n      pop\n      jump\t// out\n        /* \"#utility.yul\":8578:8873   */\n    tag_112:\n        /* \"#utility.yul\":8654:8658   */\n      0x00\n        /* \"#utility.yul\":8800:8829   */\n      tag_215\n        /* \"#utility.yul\":8825:8828   */\n      dup4\n        /* \"#utility.yul\":8819:8823   */\n      dup4\n        /* \"#utility.yul\":8800:8829   */\n      tag_111\n      jump\t// in\n    tag_215:\n        /* \"#utility.yul\":8792:8829   */\n      swap2\n      pop\n        /* \"#utility.yul\":8862:8865   */\n      dup3\n        /* \"#utility.yul\":8859:8860   */\n      0x02\n        /* \"#utility.yul\":8855:8866   */\n      mul\n        /* \"#utility.yul\":8849:8853   */\n      dup3\n        /* \"#utility.yul\":8846:8867   */\n      or\n        /* \"#utility.yul\":8838:8867   */\n      swap1\n      pop\n        /* \"#utility.yul\":8578:8873   */\n      swap3\n      swap2\n      pop\n      pop\n      jump\t// out\n        /* \"#utility.yul\":8878:10273   */\n    tag_60:\n        /* \"#utility.yul\":8995:9032   */\n      tag_217\n        /* \"#utility.yul\":9028:9031   */\n      dup3\n        /* \"#utility.yul\":8995:9032   */\n      tag_83\n      jump\t// in\n    tag_217:\n        /* \"#utility.yul\":9097:9115   */\n      0xffffffffffffffff\n        /* \"#utility.yul\":9089:9095   */\n      dup2\n        /* \"#utility.yul\":9086:9116   */\n      gt\n        /* \"#utility.yul\":9083:9139   */\n      iszero\n      tag_218\n      jumpi\n        /* \"#utility.yul\":9119:9137   */\n      tag_219\n      tag_90\n      jump\t// in\n    tag_219:\n        /* \"#utility.yul\":9083:9139   */\n    tag_218:\n        /* \"#utility.yul\":9163:9201   */\n      tag_220\n        /* \"#utility.yul\":9195:9199   */\n      dup3\n        /* \"#utility.yul\":9189:9200   */\n      sload\n        /* \"#utility.yul\":9163:9201   */\n      tag_52\n      jump\t// in\n    tag_220:\n        /* \"#utility.yul\":9248:9315   */\n      tag_221\n        /* \"#utility.yul\":9308:9314   */\n      dup3\n        /* \"#utility.yul\":9300:9306   */\n      dup3\n        /* \"#utility.yul\":9294:9298   */\n      dup6\n        /* \"#utility.yul\":9248:9315   */\n      tag_109\n      jump\t// in\n    tag_221:\n        /* \"#utility.yul\":9342:9343   */\n      0x00\n        /* \"#utility.yul\":9366:9370   */\n      0x20\n        /* \"#utility.yul\":9353:9370   */\n      swap1\n      pop\n        /* \"#utility.yul\":9398:9400   */\n      0x1f\n        /* \"#utility.yul\":9390:9396   */\n      dup4\n        /* \"#utility.yul\":9387:9401   */\n      gt\n        /* \"#utility.yul\":9415:9416   */\n      0x01\n        /* \"#utility.yul\":9410:10028   */\n      dup2\n      eq\n      tag_223\n      jumpi\n        /* \"#utility.yul\":10072:10073   */\n      0x00\n        /* \"#utility.yul\":10089:10095   */\n      dup5\n        /* \"#utility.yul\":10086:10163   */\n      iszero\n      tag_224\n      jumpi\n        /* \"#utility.yul\":10138:10147   */\n      dup3\n        /* \"#utility.yul\":10133:10136   */\n      dup8\n        /* \"#utility.yul\":10129:10148   */\n      add\n        /* \"#utility.yul\":10123:10149   */\n      mload\n        /* \"#utility.yul\":10114:10149   */\n      swap1\n      pop\n        /* \"#utility.yul\":10086:10163   */\n    tag_224:\n        /* \"#utility.yul\":10189:10256   */\n      tag_225\n        /* \"#utility.yul\":10249:10255   */\n      dup6\n        /* \"#utility.yul\":10242:10247   */\n      dup3\n        /* \"#utility.yul\":10189:10256   */\n      tag_112\n      jump\t// in\n    tag_225:\n        /* \"#utility.yul\":10183:10187   */\n      dup7\n        /* \"#utility.yul\":10176:10257   */\n      sstore\n        /* \"#utility.yul\":10045:10267   */\n      pop\n        /* \"#utility.yul\":9380:10267   */\n      jump(tag_222)\n        /* \"#utility.yul\":9410:10028   */\n    tag_223:\n        /* \"#utility.yul\":9462:9466   */\n      0x1f\n        /* \"#utility.yul\":9458:9467   */\n      not\n        /* \"#utility.yul\":9450:9456   */\n      dup5\n        /* \"#utility.yul\":9446:9468   */\n      and\n        /* \"#utility.yul\":9496:9533   */\n      tag_226\n        /* \"#utility.yul\":9528:9532   */\n      dup7\n        /* \"#utility.yul\":9496:9533   */\n      tag_98\n      jump\t// in\n    tag_226:\n        /* \"#utility.yul\":9555:9556   */\n      0x00\n        /* \"#utility.yul\":9569:9777   */\n    tag_227:\n        /* \"#utility.yul\":9583:9590   */\n      dup3\n        /* \"#utility.yul\":9580:9581   */\n      dup2\n        /* \"#utility.yul\":9577:9591   */\n      lt\n        /* \"#utility.yul\":9569:9777   */\n      iszero\n      tag_229\n      jumpi\n        /* \"#utility.yul\":9662:9671   */\n      dup5\n        /* \"#utility.yul\":9657:9660   */\n      dup10\n        /* \"#utility.yul\":9653:9672   */\n      add\n        /* \"#utility.yul\":9647:9673   */\n      mload\n        /* \"#utility.yul\":9639:9645   */\n      dup3\n        /* \"#utility.yul\":9632:9674   */\n      sstore\n        /* \"#utility.yul\":9713:9714   */\n      0x01\n        /* \"#utility.yul\":9705:9711   */\n      dup3\n        /* \"#utility.yul\":9701:9715   */\n      add\n        /* \"#utility.yul\":9691:9715   */\n      swap2\n      pop\n        /* \"#utility.yul\":9760:9762   */\n      0x20\n        /* \"#utility.yul\":9749:9758   */\n      dup6\n        /* \"#utility.yul\":9745:9763   */\n      add\n        /* \"#utility.yul\":9732:9763   */\n      swap5\n      pop\n        /* \"#utility.yul\":9606:9610   */\n      0x20\n        /* \"#utility.yul\":9603:9604   */\n      dup2\n        /* \"#utility.yul\":9599:9611   */\n      add\n        /* \"#utility.yul\":9594:9611   */\n      swap1\n      pop\n        /* \"#utility.yul\":9569:9777   */\n      jump(tag_227)\n    tag_229:\n        /* \"#utility.yul\":9805:9811   */\n      dup7\n        /* \"#utility.yul\":9796:9803   */\n      dup4\n        /* \"#utility.yul\":9793:9812   */\n      lt\n        /* \"#utility.yul\":9790:9969   */\n      iszero\n      tag_230\n      jumpi\n        /* \"#utility.yul\":9863:9872   */\n      dup5\n        /* \"#utility.yul\":9858:9861   */\n      dup10\n        /* \"#utility.yul\":9854:9873   */\n      add\n        /* \"#utility.yul\":9848:9874   */\n      mload\n        /* \"#utility.yul\":9906:9954   */\n      tag_231\n        /* \"#utility.yul\":9948:9952   */\n      0x1f\n        /* \"#utility.yul\":9940:9946   */\n      dup10\n        /* \"#utility.yul\":9936:9953   */\n      and\n        /* \"#utility.yul\":9925:9934   */\n      dup3\n        /* \"#utility.yul\":9906:9954   */\n      tag_111\n      jump\t// in\n    tag_231:\n        /* \"#utility.yul\":9898:9904   */\n      dup4\n        /* \"#utility.yul\":9891:9955   */\n      sstore\n        /* \"#utility.yul\":9813:9969   */\n      pop\n        /* \"#utility.yul\":9790:9969   */\n    tag_230:\n        /* \"#utility.yul\":10015:10016   */\n      0x01\n        /* \"#utility.yul\":10011:10012   */\n      0x02\n        /* \"#utility.yul\":10003:10009   */\n      dup9\n        /* \"#utility.yul\":9999:10013   */\n      mul\n        /* \"#utility.yul\":9995:10017   */\n      add\n        /* \"#utility.yul\":9989:9993   */\n      dup9\n        /* \"#utility.yul\":9982:10018   */\n      sstore\n        /* \"#utility.yul\":9417:10028   */\n      pop\n      pop\n      pop\n        /* \"#utility.yul\":9380:10267   */\n    tag_222:\n      pop\n        /* \"#utility.yul\":8970:10273   */\n      pop\n      pop\n      pop\n        /* \"#utility.yul\":8878:10273   */\n      pop\n      pop\n      jump\t// out\n\n    auxdata: 0xa2646970667358221220f7cb266d5ec30d67f38c950f045a7d9cd7128dca1b5b25a7a403b04ed066b22864736f6c634300081a0033\n}\n",
				"bytecode": {
					"linkReferences": {},
					"object": "6080604052348015600e575f80fd5b5061091e8061001c5f395ff3fe608060405234801561000f575f80fd5b5060043610610086575f3560e01c8063aa3546d911610059578063aa3546d914610100578063bfa577db14610130578063d83a2cb81461014c578063e8d27b6a1461015657610086565b806316cfa7141461008a57806337bfa2d0146100a85780636612bd84146100c65780637140af2c146100f6575b5f80fd5b610092610172565b60405161009f9190610370565b60405180910390f35b6100b061017d565b6040516100bd9190610370565b60405180910390f35b6100e060048036038101906100db91906103c4565b610189565b6040516100ed9190610370565b60405180910390f35b6100fe6101a8565b005b61011a600480360381019061011591906103c4565b6101ce565b604051610127919061045f565b60405180910390f35b61014a600480360381019061014591906105ab565b610274565b005b6101546102a9565b005b610170600480360381019061016b91906103c4565b6102d8565b005b5f8080549050905090565b5f600180549050905090565b5f8181548110610197575f80fd5b905f5260205f20015f915090505481565b5f8054806101b9576101b86105f2565b5b600190038181905f5260205f20015f90559055565b600181815481106101dd575f80fd5b905f5260205f20015f9150905080546101f59061064c565b80601f01602080910402602001604051908101604052809291908181526020018280546102219061064c565b801561026c5780601f106102435761010080835404028352916020019161026c565b820191905f5260205f20905b81548152906001019060200180831161024f57829003601f168201915b505050505081565b600181908060018154018082558091505060019003905f5260205f20015f9091909190915090816102a59190610819565b5050565b60018054806102bb576102ba6105f2565b5b600190038181905f5260205f20015f6102d49190610300565b9055565b5f81908060018154018082558091505060019003905f5260205f20015f909190919091505550565b50805461030c9061064c565b5f825580601f1061031d575061033a565b601f0160209004905f5260205f2090810190610339919061033d565b5b50565b5b80821115610354575f815f90555060010161033e565b5090565b5f819050919050565b61036a81610358565b82525050565b5f6020820190506103835f830184610361565b92915050565b5f604051905090565b5f80fd5b5f80fd5b6103a381610358565b81146103ad575f80fd5b50565b5f813590506103be8161039a565b92915050565b5f602082840312156103d9576103d8610392565b5b5f6103e6848285016103b0565b91505092915050565b5f81519050919050565b5f82825260208201905092915050565b8281835e5f83830152505050565b5f601f19601f8301169050919050565b5f610431826103ef565b61043b81856103f9565b935061044b818560208601610409565b61045481610417565b840191505092915050565b5f6020820190508181035f8301526104778184610427565b905092915050565b5f80fd5b5f80fd5b7f4e487b71000000000000000000000000000000000000000000000000000000005f52604160045260245ffd5b6104bd82610417565b810181811067ffffffffffffffff821117156104dc576104db610487565b5b80604052505050565b5f6104ee610389565b90506104fa82826104b4565b919050565b5f67ffffffffffffffff82111561051957610518610487565b5b61052282610417565b9050602081019050919050565b828183375f83830152505050565b5f61054f61054a846104ff565b6104e5565b90508281526020810184848401111561056b5761056a610483565b5b61057684828561052f565b509392505050565b5f82601f8301126105925761059161047f565b5b81356105a284826020860161053d565b91505092915050565b5f602082840312156105c0576105bf610392565b5b5f82013567ffffffffffffffff8111156105dd576105dc610396565b5b6105e98482850161057e565b91505092915050565b7f4e487b71000000000000000000000000000000000000000000000000000000005f52603160045260245ffd5b7f4e487b71000000000000000000000000000000000000000000000000000000005f52602260045260245ffd5b5f600282049050600182168061066357607f821691505b6020821081036106765761067561061f565b5b50919050565b5f819050815f5260205f209050919050565b5f6020601f8301049050919050565b5f82821b905092915050565b5f600883026106d87fffffffffffffffffffffffffffffffffffffffffffffffffffffffffffffffff8261069d565b6106e2868361069d565b95508019841693508086168417925050509392505050565b5f819050919050565b5f61071d61071861071384610358565b6106fa565b610358565b9050919050565b5f819050919050565b61073683610703565b61074a61074282610724565b8484546106a9565b825550505050565b5f90565b61075e610752565b61076981848461072d565b505050565b5b8181101561078c576107815f82610756565b60018101905061076f565b5050565b601f8211156107d1576107a28161067c565b6107ab8461068e565b810160208510156107ba578190505b6107ce6107c68561068e565b83018261076e565b50505b505050565b5f82821c905092915050565b5f6107f15f19846008026107d6565b1980831691505092915050565b5f61080983836107e2565b9150826002028217905092915050565b610822826103ef565b67ffffffffffffffff81111561083b5761083a610487565b5b610845825461064c565b610850828285610790565b5f60209050601f831160018114610881575f841561086f578287015190505b61087985826107fe565b8655506108e0565b601f19841661088f8661067c565b5f5b828110156108b657848901518255600182019150602085019450602081019050610891565b868310156108d357848901516108cf601f8916826107e2565b8355505b6001600288020188555050505b50505050505056fea2646970667358221220f7cb266d5ec30d67f38c950f045a7d9cd7128dca1b5b25a7a403b04ed066b22864736f6c634300081a0033",
					"opcodes": "PUSH1 0x80 PUSH1 0x40 MSTORE CALLVALUE DUP1 ISZERO PUSH1 0xE JUMPI PUSH0 DUP1 REVERT JUMPDEST POP PUSH2 0x91E DUP1 PUSH2 0x1C PUSH0 CODECOPY PUSH0 RETURN INVALID PUSH1 0x80 PUSH1 0x40 MSTORE CALLVALUE DUP1 ISZERO PUSH2 0xF JUMPI PUSH0 DUP1 REVERT JUMPDEST POP PUSH1 0x4 CALLDATASIZE LT PUSH2 0x86 JUMPI PUSH0 CALLDATALOAD PUSH1 0xE0 SHR DUP1 PUSH4 0xAA3546D9 GT PUSH2 0x59 JUMPI DUP1 PUSH4 0xAA3546D9 EQ PUSH2 0x100 JUMPI DUP1 PUSH4 0xBFA577DB EQ PUSH2 0x130 JUMPI DUP1 PUSH4 0xD83A2CB8 EQ PUSH2 0x14C JUMPI DUP1 PUSH4 0xE8D27B6A EQ PUSH2 0x156 JUMPI PUSH2 0x86 JUMP JUMPDEST DUP1 PUSH4 0x16CFA714 EQ PUSH2 0x8A JUMPI DUP1 PUSH4 0x37BFA2D0 EQ PUSH2 0xA8 JUMPI DUP1 PUSH4 0x6612BD84 EQ PUSH2 0xC6 JUMPI DUP1 PUSH4 0x7140AF2C EQ PUSH2 0xF6 JUMPI JUMPDEST PUSH0 DUP1 REVERT JUMPDEST PUSH2 0x92 PUSH2 0x172 JUMP JUMPDEST PUSH1 0x40 MLOAD PUSH2 0x9F SWAP2 SWAP1 PUSH2 0x370 JUMP JUMPDEST PUSH1 0x40 MLOAD DUP1 SWAP2 SUB SWAP1 RETURN JUMPDEST PUSH2 0xB0 PUSH2 0x17D JUMP JUMPDEST PUSH1 0x40 MLOAD PUSH2 0xBD SWAP2 SWAP1 PUSH2 0x370 JUMP JUMPDEST PUSH1 0x40 MLOAD DUP1 SWAP2 SUB SWAP1 RETURN JUMPDEST PUSH2 0xE0 PUSH1 0x4 DUP1 CALLDATASIZE SUB DUP2 ADD SWAP1 PUSH2 0xDB SWAP2 SWAP1 PUSH2 0x3C4 JUMP JUMPDEST PUSH2 0x189 JUMP JUMPDEST PUSH1 0x40 MLOAD PUSH2 0xED SWAP2 SWAP1 PUSH2 0x370 JUMP JUMPDEST PUSH1 0x40 MLOAD DUP1 SWAP2 SUB SWAP1 RETURN JUMPDEST PUSH2 0xFE PUSH2 0x1A8 JUMP JUMPDEST STOP JUMPDEST PUSH2 0x11A PUSH1 0x4 DUP1 CALLDATASIZE SUB DUP2 ADD SWAP1 PUSH2 0x115 SWAP2 SWAP1 PUSH2 0x3C4 JUMP JUMPDEST PUSH2 0x1CE JUMP JUMPDEST PUSH1 0x40 MLOAD PUSH2 0x127 SWAP2 SWAP1 PUSH2 0x45F JUMP JUMPDEST PUSH1 0x40 MLOAD DUP1 SWAP2 SUB SWAP1 RETURN JUMPDEST PUSH2 0x14A PUSH1 0x4 DUP1 CALLDATASIZE SUB DUP2 ADD SWAP1 PUSH2 0x145 SWAP2 SWAP1 PUSH2 0x5AB JUMP JUMPDEST PUSH2 0x274 JUMP JUMPDEST STOP JUMPDEST PUSH2 0x154 PUSH2 0x2A9 JUMP JUMPDEST STOP JUMPDEST PUSH2 0x170 PUSH1 0x4 DUP1 CALLDATASIZE SUB DUP2 ADD SWAP1 PUSH2 0x16B SWAP2 SWAP1 PUSH2 0x3C4 JUMP JUMPDEST PUSH2 0x2D8 JUMP JUMPDEST STOP JUMPDEST PUSH0 DUP1 DUP1 SLOAD SWAP1 POP SWAP1 POP SWAP1 JUMP JUMPDEST PUSH0 PUSH1 0x1 DUP1 SLOAD SWAP1 POP SWAP1 POP SWAP1 JUMP JUMPDEST PUSH0 DUP2 DUP2 SLOAD DUP2 LT PUSH2 0x197 JUMPI PUSH0 DUP1 REVERT JUMPDEST SWAP1 PUSH0 MSTORE PUSH1 0x20 PUSH0 KECCAK256 ADD PUSH0 SWAP2 POP SWAP1 POP SLOAD DUP2 JUMP JUMPDEST PUSH0 DUP1 SLOAD DUP1 PUSH2 0x1B9 JUMPI PUSH2 0x1B8 PUSH2 0x5F2 JUMP JUMPDEST JUMPDEST PUSH1 0x1 SWAP1 SUB DUP2 DUP2 SWAP1 PUSH0 MSTORE PUSH1 0x20 PUSH0 KECCAK256 ADD PUSH0 SWAP1 SSTORE SWAP1 SSTORE JUMP JUMPDEST PUSH1 0x1 DUP2 DUP2 SLOAD DUP2 LT PUSH2 0x1DD JUMPI PUSH0 DUP1 REVERT JUMPDEST SWAP1 PUSH0 MSTORE PUSH1 0x20 PUSH0 KECCAK256 ADD PUSH0 SWAP2 POP SWAP1 POP DUP1 SLOAD PUSH2 0x1F5 SWAP1 PUSH2 0x64C JUMP JUMPDEST DUP1 PUSH1 0x1F ADD PUSH1 0x20 DUP1 SWAP2 DIV MUL PUSH1 0x20 ADD PUSH1 0x40 MLOAD SWAP1 DUP2 ADD PUSH1 0x40 MSTORE DUP1 SWAP3 SWAP2 SWAP1 DUP2 DUP2 MSTORE PUSH1 0x20 ADD DUP3 DUP1 SLOAD PUSH2 0x221 SWAP1 PUSH2 0x64C JUMP JUMPDEST DUP1 ISZERO PUSH2 0x26C JUMPI DUP1 PUSH1 0x1F LT PUSH2 0x243 JUMPI PUSH2 0x100 DUP1 DUP4 SLOAD DIV MUL DUP4 MSTORE SWAP2 PUSH1 0x20 ADD SWAP2 PUSH2 0x26C JUMP JUMPDEST DUP3 ADD SWAP2 SWAP1 PUSH0 MSTORE PUSH1 0x20 PUSH0 KECCAK256 SWAP1 JUMPDEST DUP2 SLOAD DUP2 MSTORE SWAP1 PUSH1 0x1 ADD SWAP1 PUSH1 0x20 ADD DUP1 DUP4 GT PUSH2 0x24F JUMPI DUP3 SWAP1 SUB PUSH1 0x1F AND DUP3 ADD SWAP2 JUMPDEST POP POP POP POP POP DUP2 JUMP JUMPDEST PUSH1 0x1 DUP2 SWAP1 DUP1 PUSH1 0x1 DUP2 SLOAD ADD DUP1 DUP3 SSTORE DUP1 SWAP2 POP POP PUSH1 0x1 SWAP1 SUB SWAP1 PUSH0 MSTORE PUSH1 0x20 PUSH0 KECCAK256 ADD PUSH0 SWAP1 SWAP2 SWAP1 SWAP2 SWAP1 SWAP2 POP SWAP1 DUP2 PUSH2 0x2A5 SWAP2 SWAP1 PUSH2 0x819 JUMP JUMPDEST POP POP JUMP JUMPDEST PUSH1 0x1 DUP1 SLOAD DUP1 PUSH2 0x2BB JUMPI PUSH2 0x2BA PUSH2 0x5F2 JUMP JUMPDEST JUMPDEST PUSH1 0x1 SWAP1 SUB DUP2 DUP2 SWAP1 PUSH0 MSTORE PUSH1 0x20 PUSH0 KECCAK256 ADD PUSH0 PUSH2 0x2D4 SWAP2 SWAP1 PUSH2 0x300 JUMP JUMPDEST SWAP1 SSTORE JUMP JUMPDEST PUSH0 DUP2 SWAP1 DUP1 PUSH1 0x1 DUP2 SLOAD ADD DUP1 DUP3 SSTORE DUP1 SWAP2 POP POP PUSH1 0x1 SWAP1 SUB SWAP1 PUSH0 MSTORE PUSH1 0x20 PUSH0 KECCAK256 ADD PUSH0 SWAP1 SWAP2 SWAP1 SWAP2 SWAP1 SWAP2 POP SSTORE POP JUMP JUMPDEST POP DUP1 SLOAD PUSH2 0x30C SWAP1 PUSH2 0x64C JUMP JUMPDEST PUSH0 DUP3 SSTORE DUP1 PUSH1 0x1F LT PUSH2 0x31D JUMPI POP PUSH2 0x33A JUMP JUMPDEST PUSH1 0x1F ADD PUSH1 0x20 SWAP1 DIV SWAP1 PUSH0 MSTORE PUSH1 0x20 PUSH0 KECCAK256 SWAP1 DUP2 ADD SWAP1 PUSH2 0x339 SWAP2 SWAP1 PUSH2 0x33D JUMP JUMPDEST JUMPDEST POP JUMP JUMPDEST JUMPDEST DUP1 DUP3 GT ISZERO PUSH2 0x354 JUMPI PUSH0 DUP2 PUSH0 SWAP1 SSTORE POP PUSH1 0x1 ADD PUSH2 0x33E JUMP JUMPDEST POP SWAP1 JUMP JUMPDEST PUSH0 DUP2 SWAP1 POP SWAP2 SWAP1 POP JUMP JUMPDEST PUSH2 0x36A DUP2 PUSH2 0x358 JUMP JUMPDEST DUP3 MSTORE POP POP JUMP JUMPDEST PUSH0 PUSH1 0x20 DUP3 ADD SWAP1 POP PUSH2 0x383 PUSH0 DUP4 ADD DUP5 PUSH2 0x361 JUMP JUMPDEST SWAP3 SWAP2 POP POP JUMP JUMPDEST PUSH0 PUSH1 0x40 MLOAD SWAP1 POP SWAP1 JUMP JUMPDEST PUSH0 DUP1 REVERT JUMPDEST PUSH0 DUP1 REVERT JUMPDEST PUSH2 0x3A3 DUP2 PUSH2 0x358 JUMP JUMPDEST DUP2 EQ PUSH2 0x3AD JUMPI PUSH0 DUP1 REVERT JUMPDEST POP JUMP JUMPDEST PUSH0 DUP2 CALLDATALOAD SWAP1 POP PUSH2 0x3BE DUP2 PUSH2 0x39A JUMP JUMPDEST SWAP3 SWAP2 POP POP JUMP JUMPDEST PUSH0 PUSH1 0x20 DUP3 DUP5 SUB SLT ISZERO PUSH2 0x3D9 JUMPI PUSH2 0x3D8 PUSH2 0x392 JUMP JUMPDEST JUMPDEST PUSH0 PUSH2 0x3E6 DUP5 DUP3 DUP6 ADD PUSH2 0x3B0 JUMP JUMPDEST SWAP2 POP POP SWAP3 SWAP2 POP POP JUMP JUMPDEST PUSH0 DUP2 MLOAD SWAP1 POP SWAP2 SWAP1 POP JUMP JUMPDEST PUSH0 DUP3 DUP3 MSTORE PUSH1 0x20 DUP3 ADD SWAP1 POP SWAP3 SWAP2 POP POP JUMP JUMPDEST DUP3 DUP2 DUP4 MCOPY PUSH0 DUP4 DUP4 ADD MSTORE POP POP POP JUMP JUMPDEST PUSH0 PUSH1 0x1F NOT PUSH1 0x1F DUP4 ADD AND SWAP1 POP SWAP2 SWAP1 POP JUMP JUMPDEST PUSH0 PUSH2 0x431 DUP3 PUSH2 0x3EF JUMP JUMPDEST PUSH2 0x43B DUP2 DUP6 PUSH2 0x3F9 JUMP JUMPDEST SWAP4 POP PUSH2 0x44B DUP2 DUP6 PUSH1 0x20 DUP7 ADD PUSH2 0x409 JUMP JUMPDEST PUSH2 0x454 DUP2 PUSH2 0x417 JUMP JUMPDEST DUP5 ADD SWAP2 POP POP SWAP3 SWAP2 POP POP JUMP JUMPDEST PUSH0 PUSH1 0x20 DUP3 ADD SWAP1 POP DUP2 DUP2 SUB PUSH0 DUP4 ADD MSTORE PUSH2 0x477 DUP2 DUP5 PUSH2 0x427 JUMP JUMPDEST SWAP1 POP SWAP3 SWAP2 POP POP JUMP JUMPDEST PUSH0 DUP1 REVERT JUMPDEST PUSH0 DUP1 REVERT JUMPDEST PUSH32 0x4E487B7100000000000000000000000000000000000000000000000000000000 PUSH0 MSTORE PUSH1 0x41 PUSH1 0x4 MSTORE PUSH1 0x24 PUSH0 REVERT JUMPDEST PUSH2 0x4BD DUP3 PUSH2 0x417 JUMP JUMPDEST DUP2 ADD DUP2 DUP2 LT PUSH8 0xFFFFFFFFFFFFFFFF DUP3 GT OR ISZERO PUSH2 0x4DC JUMPI PUSH2 0x4DB PUSH2 0x487 JUMP JUMPDEST JUMPDEST DUP1 PUSH1 0x40 MSTORE POP POP POP JUMP JUMPDEST PUSH0 PUSH2 0x4EE PUSH2 0x389 JUMP JUMPDEST SWAP1 POP PUSH2 0x4FA DUP3 DUP3 PUSH2 0x4B4 JUMP JUMPDEST SWAP2 SWAP1 POP JUMP JUMPDEST PUSH0 PUSH8 0xFFFFFFFFFFFFFFFF DUP3 GT ISZERO PUSH2 0x519 JUMPI PUSH2 0x518 PUSH2 0x487 JUMP JUMPDEST JUMPDEST PUSH2 0x522 DUP3 PUSH2 0x417 JUMP JUMPDEST SWAP1 POP PUSH1 0x20 DUP2 ADD SWAP1 POP SWAP2 SWAP1 POP JUMP JUMPDEST DUP3 DUP2 DUP4 CALLDATACOPY PUSH0 DUP4 DUP4 ADD MSTORE POP POP POP JUMP JUMPDEST PUSH0 PUSH2 0x54F PUSH2 0x54A DUP5 PUSH2 0x4FF JUMP JUMPDEST PUSH2 0x4E5 JUMP JUMPDEST SWAP1 POP DUP3 DUP2 MSTORE PUSH1 0x20 DUP2 ADD DUP5 DUP5 DUP5 ADD GT ISZERO PUSH2 0x56B JUMPI PUSH2 0x56A PUSH2 0x483 JUMP JUMPDEST JUMPDEST PUSH2 0x576 DUP5 DUP3 DUP6 PUSH2 0x52F JUMP JUMPDEST POP SWAP4 SWAP3 POP POP POP JUMP JUMPDEST PUSH0 DUP3 PUSH1 0x1F DUP4 ADD SLT PUSH2 0x592 JUMPI PUSH2 0x591 PUSH2 0x47F JUMP JUMPDEST JUMPDEST DUP2 CALLDATALOAD PUSH2 0x5A2 DUP5 DUP3 PUSH1 0x20 DUP7 ADD PUSH2 0x53D JUMP JUMPDEST SWAP2 POP POP SWAP3 SWAP2 POP POP JUMP JUMPDEST PUSH0 PUSH1 0x20 DUP3 DUP5 SUB SLT ISZERO PUSH2 0x5C0 JUMPI PUSH2 0x5BF PUSH2 0x392 JUMP JUMPDEST JUMPDEST PUSH0 DUP3 ADD CALLDATALOAD PUSH8 0xFFFFFFFFFFFFFFFF DUP2 GT ISZERO PUSH2 0x5DD JUMPI PUSH2 0x5DC PUSH2 0x396 JUMP JUMPDEST JUMPDEST PUSH2 0x5E9 DUP5 DUP3 DUP6 ADD PUSH2 0x57E JUMP JUMPDEST SWAP2 POP POP SWAP3 SWAP2 POP POP JUMP JUMPDEST PUSH32 0x4E487B7100000000000000000000000000000000000000000000000000000000 PUSH0 MSTORE PUSH1 0x31 PUSH1 0x4 MSTORE PUSH1 0x24 PUSH0 REVERT JUMPDEST PUSH32 0x4E487B7100000000000000000000000000000000000000000000000000000000 PUSH0 MSTORE PUSH1 0x22 PUSH1 0x4 MSTORE PUSH1 0x24 PUSH0 REVERT JUMPDEST PUSH0 PUSH1 0x2 DUP3 DIV SWAP1 POP PUSH1 0x1 DUP3 AND DUP1 PUSH2 0x663 JUMPI PUSH1 0x7F DUP3 AND SWAP2 POP JUMPDEST PUSH1 0x20 DUP3 LT DUP2 SUB PUSH2 0x676 JUMPI PUSH2 0x675 PUSH2 0x61F JUMP JUMPDEST JUMPDEST POP SWAP2 SWAP1 POP JUMP JUMPDEST PUSH0 DUP2 SWAP1 POP DUP2 PUSH0 MSTORE PUSH1 0x20 PUSH0 KECCAK256 SWAP1 POP SWAP2 SWAP1 POP JUMP JUMPDEST PUSH0 PUSH1 0x20 PUSH1 0x1F DUP4 ADD DIV SWAP1 POP SWAP2 SWAP1 POP JUMP JUMPDEST PUSH0 DUP3 DUP3 SHL SWAP1 POP SWAP3 SWAP2 POP POP JUMP JUMPDEST PUSH0 PUSH1 0x8 DUP4 MUL PUSH2 0x6D8 PUSH32 0xFFFFFFFFFFFFFFFFFFFFFFFFFFFFFFFFFFFFFFFFFFFFFFFFFFFFFFFFFFFFFFFF DUP3 PUSH2 0x69D JUMP JUMPDEST PUSH2 0x6E2 DUP7 DUP4 PUSH2 0x69D JUMP JUMPDEST SWAP6 POP DUP1 NOT DUP5 AND SWAP4 POP DUP1 DUP7 AND DUP5 OR SWAP3 POP POP POP SWAP4 SWAP3 POP POP POP JUMP JUMPDEST PUSH0 DUP2 SWAP1 POP SWAP2 SWAP1 POP JUMP JUMPDEST PUSH0 PUSH2 0x71D PUSH2 0x718 PUSH2 0x713 DUP5 PUSH2 0x358 JUMP JUMPDEST PUSH2 0x6FA JUMP JUMPDEST PUSH2 0x358 JUMP JUMPDEST SWAP1 POP SWAP2 SWAP1 POP JUMP JUMPDEST PUSH0 DUP2 SWAP1 POP SWAP2 SWAP1 POP JUMP JUMPDEST PUSH2 0x736 DUP4 PUSH2 0x703 JUMP JUMPDEST PUSH2 0x74A PUSH2 0x742 DUP3 PUSH2 0x724 JUMP JUMPDEST DUP5 DUP5 SLOAD PUSH2 0x6A9 JUMP JUMPDEST DUP3 SSTORE POP POP POP POP JUMP JUMPDEST PUSH0 SWAP1 JUMP JUMPDEST PUSH2 0x75E PUSH2 0x752 JUMP JUMPDEST PUSH2 0x769 DUP2 DUP5 DUP5 PUSH2 0x72D JUMP JUMPDEST POP POP POP JUMP JUMPDEST JUMPDEST DUP2 DUP2 LT ISZERO PUSH2 0x78C JUMPI PUSH2 0x781 PUSH0 DUP3 PUSH2 0x756 JUMP JUMPDEST PUSH1 0x1 DUP2 ADD SWAP1 POP PUSH2 0x76F JUMP JUMPDEST POP POP JUMP JUMPDEST PUSH1 0x1F DUP3 GT ISZERO PUSH2 0x7D1 JUMPI PUSH2 0x7A2 DUP2 PUSH2 0x67C JUMP JUMPDEST PUSH2 0x7AB DUP5 PUSH2 0x68E JUMP JUMPDEST DUP2 ADD PUSH1 0x20 DUP6 LT ISZERO PUSH2 0x7BA JUMPI DUP2 SWAP1 POP JUMPDEST PUSH2 0x7CE PUSH2 0x7C6 DUP6 PUSH2 0x68E JUMP JUMPDEST DUP4 ADD DUP3 PUSH2 0x76E JUMP JUMPDEST POP POP JUMPDEST POP POP POP JUMP JUMPDEST PUSH0 DUP3 DUP3 SHR SWAP1 POP SWAP3 SWAP2 POP POP JUMP JUMPDEST PUSH0 PUSH2 0x7F1 PUSH0 NOT DUP5 PUSH1 0x8 MUL PUSH2 0x7D6 JUMP JUMPDEST NOT DUP1 DUP4 AND SWAP2 POP POP SWAP3 SWAP2 POP POP JUMP JUMPDEST PUSH0 PUSH2 0x809 DUP4 DUP4 PUSH2 0x7E2 JUMP JUMPDEST SWAP2 POP DUP3 PUSH1 0x2 MUL DUP3 OR SWAP1 POP SWAP3 SWAP2 POP POP JUMP JUMPDEST PUSH2 0x822 DUP3 PUSH2 0x3EF JUMP JUMPDEST PUSH8 0xFFFFFFFFFFFFFFFF DUP2 GT ISZERO PUSH2 0x83B JUMPI PUSH2 0x83A PUSH2 0x487 JUMP JUMPDEST JUMPDEST PUSH2 0x845 DUP3 SLOAD PUSH2 0x64C JUMP JUMPDEST PUSH2 0x850 DUP3 DUP3 DUP6 PUSH2 0x790 JUMP JUMPDEST PUSH0 PUSH1 0x20 SWAP1 POP PUSH1 0x1F DUP4 GT PUSH1 0x1 DUP2 EQ PUSH2 0x881 JUMPI PUSH0 DUP5 ISZERO PUSH2 0x86F JUMPI DUP3 DUP8 ADD MLOAD SWAP1 POP JUMPDEST PUSH2 0x879 DUP6 DUP3 PUSH2 0x7FE JUMP JUMPDEST DUP7 SSTORE POP PUSH2 0x8E0 JUMP JUMPDEST PUSH1 0x1F NOT DUP5 AND PUSH2 0x88F DUP7 PUSH2 0x67C JUMP JUMPDEST PUSH0 JUMPDEST DUP3 DUP2 LT ISZERO PUSH2 0x8B6 JUMPI DUP5 DUP10 ADD MLOAD DUP3 SSTORE PUSH1 0x1 DUP3 ADD SWAP2 POP PUSH1 0x20 DUP6 ADD SWAP5 POP PUSH1 0x20 DUP2 ADD SWAP1 POP PUSH2 0x891 JUMP JUMPDEST DUP7 DUP4 LT ISZERO PUSH2 0x8D3 JUMPI DUP5 DUP10 ADD MLOAD PUSH2 0x8CF PUSH1 0x1F DUP10 AND DUP3 PUSH2 0x7E2 JUMP JUMPDEST DUP4 SSTORE POP JUMPDEST PUSH1 0x1 PUSH1 0x2 DUP9 MUL ADD DUP9 SSTORE POP POP POP JUMPDEST POP POP POP POP POP POP JUMP INVALID LOG2 PUSH5 0x6970667358 0x22 SLT KECCAK256 0xF7 0xCB 0x26 PUSH14 0x5EC30D67F38C950F045A7D9CD712 DUP14 0xCA SHL JUMPDEST 0x25 0xA7 LOG4 SUB 0xB0 0x4E 0xD0 PUSH7 0xB22864736F6C63 NUMBER STOP ADDMOD BYTE STOP CALLER "
				},
				"gasEstimates": {
					"creation": {
						"codeDepositCost": "466800",
						"executionCost": "497",
						"totalCost": "467297"
					},
					"external": {
						"addStringElement(string)": "infinite",
						"addUnintElement(uint256)": "46886",
						"arrayStringlenght()": "2463",
						"arrayUintlenght()": "2441",
						"myStringArray(uint256)": "infinite",
						"myUintarray(uint256)": "infinite",
						"removeStringElement()": "infinite",
						"removeUnitElement()": "29507"
					}
				},
				"methodIdentifiers": {
					"addStringElement(string)": "bfa577db",
					"addUnintElement(uint256)": "e8d27b6a",
					"arrayStringlenght()": "37bfa2d0",
					"arrayUintlenght()": "16cfa714",
					"myStringArray(uint256)": "aa3546d9",
					"myUintarray(uint256)": "6612bd84",
					"removeStringElement()": "d83a2cb8",
					"removeUnitElement()": "7140af2c"
				}
			},
			"storageLayout": {
				"storage": [
					{
						"astId": 4,
						"contract": "array.sol:myArray",
						"label": "myUintarray",
						"offset": 0,
						"slot": "0",
						"type": "t_array(t_uint256)dyn_storage"
					},
					{
						"astId": 37,
						"contract": "array.sol:myArray",
						"label": "myStringArray",
						"offset": 0,
						"slot": "1",
						"type": "t_array(t_string_storage)dyn_storage"
					}
				],
				"types": {
					"t_array(t_string_storage)dyn_storage": {
						"base": "t_string_storage",
						"encoding": "dynamic_array",
						"label": "string[]",
						"numberOfBytes": "32"
					},
					"t_array(t_uint256)dyn_storage": {
						"base": "t_uint256",
						"encoding": "dynamic_array",
						"label": "uint256[]",
						"numberOfBytes": "32"
					},
					"t_string_storage": {
						"encoding": "bytes",
						"label": "string",
						"numberOfBytes": "32"
					},
					"t_uint256": {
						"encoding": "inplace",
						"label": "uint256",
						"numberOfBytes": "32"
					}
				}
			},
			"userdoc": {
				"kind": "user",
				"methods": {},
				"version": 1
			}
		}
	}
}