{
	"SimpleStorage.sol": {
		"SimpleStorage": {
			"abi": [
				{
					"inputs": [],
					"name": "intNumber",
					"outputs": [
						{
							"internalType": "int256",
							"name": "",
							"type": "int256"
						}
					],
					"stateMutability": "view",
					"type": "function"
				},
				{
					"inputs": [],
					"name": "isTrue",
					"outputs": [
						{
							"internalType": "bool",
							"name": "",
							"type": "bool"
						}
					],
					"stateMutability": "view",
					"type": "function"
				},
				{
					"inputs": [],
					"name": "myAccount",
					"outputs": [
						{
							"internalType": "address",
							"name": "",
							"type": "address"
						}
					],
					"stateMutability": "view",
					"type": "function"
				},
				{
					"inputs": [],
					"name": "name",
					"outputs": [
						{
							"internalType": "string",
							"name": "",
							"type": "string"
						}
					],
					"stateMutability": "view",
					"type": "function"
				},
				{
					"inputs": [],
					"name": "uintNumber",
					"outputs": [
						{
							"internalType": "uint256",
							"name": "",
							"type": "uint256"
						}
					],
					"stateMutability": "view",
					"type": "function"
				}
			],
			"devdoc": {
				"kind": "dev",
				"methods": {},
				"version": 1
			},
			"evm": {
				"assembly": "    /* \"SimpleStorage.sol\":63:233  contract SimpleStorage {... */\n  mstore(0x40, 0x80)\n  callvalue\n  dup1\n  iszero\n  tag_1\n  jumpi\n  revert(0x00, 0x00)\ntag_1:\n  pop\n  dataSize(sub_0)\n  dup1\n  dataOffset(sub_0)\n  0x00\n  codecopy\n  0x00\n  return\nstop\n\nsub_0: assembly {\n        /* \"SimpleStorage.sol\":63:233  contract SimpleStorage {... */\n      mstore(0x40, 0x80)\n      callvalue\n      dup1\n      iszero\n      tag_1\n      jumpi\n      revert(0x00, 0x00)\n    tag_1:\n      pop\n      jumpi(tag_2, lt(calldatasize, 0x04))\n      shr(0xe0, calldataload(0x00))\n      dup1\n      0x74530a\n      eq\n      tag_3\n      jumpi\n      dup1\n      0x06fdde03\n      eq\n      tag_4\n      jumpi\n      dup1\n      0x6143c9dc\n      eq\n      tag_5\n      jumpi\n      dup1\n      0x668086b0\n      eq\n      tag_6\n      jumpi\n      dup1\n      0xb29c62f4\n      eq\n      tag_7\n      jumpi\n    tag_2:\n      revert(0x00, 0x00)\n        /* \"SimpleStorage.sol\":93:111  bool public isTrue */\n    tag_3:\n      tag_8\n      tag_9\n      jump\t// in\n    tag_8:\n      mload(0x40)\n      tag_10\n      swap2\n      swap1\n      tag_11\n      jump\t// in\n    tag_10:\n      mload(0x40)\n      dup1\n      swap2\n      sub\n      swap1\n      return\n        /* \"SimpleStorage.sol\":174:192  string public name */\n    tag_4:\n      tag_12\n      tag_13\n      jump\t// in\n    tag_12:\n      mload(0x40)\n      tag_14\n      swap2\n      swap1\n      tag_15\n      jump\t// in\n    tag_14:\n      mload(0x40)\n      dup1\n      swap2\n      sub\n      swap1\n      return\n        /* \"SimpleStorage.sol\":118:140  uint public uintNumber */\n    tag_5:\n      tag_16\n      tag_17\n      jump\t// in\n    tag_16:\n      mload(0x40)\n      tag_18\n      swap2\n      swap1\n      tag_19\n      jump\t// in\n    tag_18:\n      mload(0x40)\n      dup1\n      swap2\n      sub\n      swap1\n      return\n        /* \"SimpleStorage.sol\":147:167  int public intNumber */\n    tag_6:\n      tag_20\n      tag_21\n      jump\t// in\n    tag_20:\n      mload(0x40)\n      tag_22\n      swap2\n      swap1\n      tag_23\n      jump\t// in\n    tag_22:\n      mload(0x40)\n      dup1\n      swap2\n      sub\n      swap1\n      return\n        /* \"SimpleStorage.sol\":199:223  address public myAccount */\n    tag_7:\n      tag_24\n      tag_25\n      jump\t// in\n    tag_24:\n      mload(0x40)\n      tag_26\n      swap2\n      swap1\n      tag_27\n      jump\t// in\n    tag_26:\n      mload(0x40)\n      dup1\n      swap2\n      sub\n      swap1\n      return\n        /* \"SimpleStorage.sol\":93:111  bool public isTrue */\n    tag_9:\n      0x00\n      0x00\n      swap1\n      sload\n      swap1\n      0x0100\n      exp\n      swap1\n      div\n      0xff\n      and\n      dup2\n      jump\t// out\n        /* \"SimpleStorage.sol\":174:192  string public name */\n    tag_13:\n      0x03\n      dup1\n      sload\n      tag_28\n      swap1\n      tag_29\n      jump\t// in\n    tag_28:\n      dup1\n      0x1f\n      add\n      0x20\n      dup1\n      swap2\n      div\n      mul\n      0x20\n      add\n      mload(0x40)\n      swap1\n      dup2\n      add\n      0x40\n      mstore\n      dup1\n      swap3\n      swap2\n      swap1\n      dup2\n      dup2\n      mstore\n      0x20\n      add\n      dup3\n      dup1\n      sload\n      tag_30\n      swap1\n      tag_29\n      jump\t// in\n    tag_30:\n      dup1\n      iszero\n      tag_31\n      jumpi\n      dup1\n      0x1f\n      lt\n      tag_32\n      jumpi\n      0x0100\n      dup1\n      dup4\n      sload\n      div\n      mul\n      dup4\n      mstore\n      swap2\n      0x20\n      add\n      swap2\n      jump(tag_31)\n    tag_32:\n      dup3\n      add\n      swap2\n      swap1\n      0x00\n      mstore\n      keccak256(0x00, 0x20)\n      swap1\n    tag_33:\n      dup2\n      sload\n      dup2\n      mstore\n      swap1\n      0x01\n      add\n      swap1\n      0x20\n      add\n      dup1\n      dup4\n      gt\n      tag_33\n      jumpi\n      dup3\n      swap1\n      sub\n      0x1f\n      and\n      dup3\n      add\n      swap2\n    tag_31:\n      pop\n      pop\n      pop\n      pop\n      pop\n      dup2\n      jump\t// out\n        /* \"SimpleStorage.sol\":118:140  uint public uintNumber */\n    tag_17:\n      sload(0x01)\n      dup2\n      jump\t// out\n        /* \"SimpleStorage.sol\":147:167  int public intNumber */\n    tag_21:\n      sload(0x02)\n      dup2\n      jump\t// out\n        /* \"SimpleStorage.sol\":199:223  address public myAccount */\n    tag_25:\n      0x04\n      0x00\n      swap1\n      sload\n      swap1\n      0x0100\n      exp\n      swap1\n      div\n      0xffffffffffffffffffffffffffffffffffffffff\n      and\n      dup2\n      jump\t// out\n        /* \"#utility.yul\":7:97   */\n    tag_34:\n        /* \"#utility.yul\":41:48   */\n      0x00\n        /* \"#utility.yul\":84:89   */\n      dup2\n        /* \"#utility.yul\":77:90   */\n      iszero\n        /* \"#utility.yul\":70:91   */\n      iszero\n        /* \"#utility.yul\":59:91   */\n      swap1\n      pop\n        /* \"#utility.yul\":7:97   */\n      swap2\n      swap1\n      pop\n      jump\t// out\n        /* \"#utility.yul\":103:212   */\n    tag_35:\n        /* \"#utility.yul\":184:205   */\n      tag_52\n        /* \"#utility.yul\":199:204   */\n      dup2\n        /* \"#utility.yul\":184:205   */\n      tag_34\n      jump\t// in\n    tag_52:\n        /* \"#utility.yul\":179:182   */\n      dup3\n        /* \"#utility.yul\":172:206   */\n      mstore\n        /* \"#utility.yul\":103:212   */\n      pop\n      pop\n      jump\t// out\n        /* \"#utility.yul\":218:428   */\n    tag_11:\n        /* \"#utility.yul\":305:309   */\n      0x00\n        /* \"#utility.yul\":343:345   */\n      0x20\n        /* \"#utility.yul\":332:341   */\n      dup3\n        /* \"#utility.yul\":328:346   */\n      add\n        /* \"#utility.yul\":320:346   */\n      swap1\n      pop\n        /* \"#utility.yul\":356:421   */\n      tag_54\n        /* \"#utility.yul\":418:419   */\n      0x00\n        /* \"#utility.yul\":407:416   */\n      dup4\n        /* \"#utility.yul\":403:420   */\n      add\n        /* \"#utility.yul\":394:400   */\n      dup5\n        /* \"#utility.yul\":356:421   */\n      tag_35\n      jump\t// in\n    tag_54:\n        /* \"#utility.yul\":218:428   */\n      swap3\n      swap2\n      pop\n      pop\n      jump\t// out\n        /* \"#utility.yul\":434:533   */\n    tag_36:\n        /* \"#utility.yul\":486:492   */\n      0x00\n        /* \"#utility.yul\":520:525   */\n      dup2\n        /* \"#utility.yul\":514:526   */\n      mload\n        /* \"#utility.yul\":504:526   */\n      swap1\n      pop\n        /* \"#utility.yul\":434:533   */\n      swap2\n      swap1\n      pop\n      jump\t// out\n        /* \"#utility.yul\":539:708   */\n    tag_37:\n        /* \"#utility.yul\":623:634   */\n      0x00\n        /* \"#utility.yul\":657:663   */\n      dup3\n        /* \"#utility.yul\":652:655   */\n      dup3\n        /* \"#utility.yul\":645:664   */\n      mstore\n        /* \"#utility.yul\":697:701   */\n      0x20\n        /* \"#utility.yul\":692:695   */\n      dup3\n        /* \"#utility.yul\":688:702   */\n      add\n        /* \"#utility.yul\":673:702   */\n      swap1\n      pop\n        /* \"#utility.yul\":539:708   */\n      swap3\n      swap2\n      pop\n      pop\n      jump\t// out\n        /* \"#utility.yul\":714:853   */\n    tag_38:\n        /* \"#utility.yul\":803:809   */\n      dup3\n        /* \"#utility.yul\":798:801   */\n      dup2\n        /* \"#utility.yul\":793:796   */\n      dup4\n        /* \"#utility.yul\":787:810   */\n      mcopy\n        /* \"#utility.yul\":844:845   */\n      0x00\n        /* \"#utility.yul\":835:841   */\n      dup4\n        /* \"#utility.yul\":830:833   */\n      dup4\n        /* \"#utility.yul\":826:842   */\n      add\n        /* \"#utility.yul\":819:846   */\n      mstore\n        /* \"#utility.yul\":714:853   */\n      pop\n      pop\n      pop\n      jump\t// out\n        /* \"#utility.yul\":859:961   */\n    tag_39:\n        /* \"#utility.yul\":900:906   */\n      0x00\n        /* \"#utility.yul\":951:953   */\n      0x1f\n        /* \"#utility.yul\":947:954   */\n      not\n        /* \"#utility.yul\":942:944   */\n      0x1f\n        /* \"#utility.yul\":935:940   */\n      dup4\n        /* \"#utility.yul\":931:945   */\n      add\n        /* \"#utility.yul\":927:955   */\n      and\n        /* \"#utility.yul\":917:955   */\n      swap1\n      pop\n        /* \"#utility.yul\":859:961   */\n      swap2\n      swap1\n      pop\n      jump\t// out\n        /* \"#utility.yul\":967:1344   */\n    tag_40:\n        /* \"#utility.yul\":1055:1058   */\n      0x00\n        /* \"#utility.yul\":1083:1122   */\n      tag_60\n        /* \"#utility.yul\":1116:1121   */\n      dup3\n        /* \"#utility.yul\":1083:1122   */\n      tag_36\n      jump\t// in\n    tag_60:\n        /* \"#utility.yul\":1138:1209   */\n      tag_61\n        /* \"#utility.yul\":1202:1208   */\n      dup2\n        /* \"#utility.yul\":1197:1200   */\n      dup6\n        /* \"#utility.yul\":1138:1209   */\n      tag_37\n      jump\t// in\n    tag_61:\n        /* \"#utility.yul\":1131:1209   */\n      swap4\n      pop\n        /* \"#utility.yul\":1218:1283   */\n      tag_62\n        /* \"#utility.yul\":1276:1282   */\n      dup2\n        /* \"#utility.yul\":1271:1274   */\n      dup6\n        /* \"#utility.yul\":1264:1268   */\n      0x20\n        /* \"#utility.yul\":1257:1262   */\n      dup7\n        /* \"#utility.yul\":1253:1269   */\n      add\n        /* \"#utility.yul\":1218:1283   */\n      tag_38\n      jump\t// in\n    tag_62:\n        /* \"#utility.yul\":1308:1337   */\n      tag_63\n        /* \"#utility.yul\":1330:1336   */\n      dup2\n        /* \"#utility.yul\":1308:1337   */\n      tag_39\n      jump\t// in\n    tag_63:\n        /* \"#utility.yul\":1303:1306   */\n      dup5\n        /* \"#utility.yul\":1299:1338   */\n      add\n        /* \"#utility.yul\":1292:1338   */\n      swap2\n      pop\n        /* \"#utility.yul\":1059:1344   */\n      pop\n        /* \"#utility.yul\":967:1344   */\n      swap3\n      swap2\n      pop\n      pop\n      jump\t// out\n        /* \"#utility.yul\":1350:1663   */\n    tag_15:\n        /* \"#utility.yul\":1463:1467   */\n      0x00\n        /* \"#utility.yul\":1501:1503   */\n      0x20\n        /* \"#utility.yul\":1490:1499   */\n      dup3\n        /* \"#utility.yul\":1486:1504   */\n      add\n        /* \"#utility.yul\":1478:1504   */\n      swap1\n      pop\n        /* \"#utility.yul\":1550:1559   */\n      dup2\n        /* \"#utility.yul\":1544:1548   */\n      dup2\n        /* \"#utility.yul\":1540:1560   */\n      sub\n        /* \"#utility.yul\":1536:1537   */\n      0x00\n        /* \"#utility.yul\":1525:1534   */\n      dup4\n        /* \"#utility.yul\":1521:1538   */\n      add\n        /* \"#utility.yul\":1514:1561   */\n      mstore\n        /* \"#utility.yul\":1578:1656   */\n      tag_65\n        /* \"#utility.yul\":1651:1655   */\n      dup2\n        /* \"#utility.yul\":1642:1648   */\n      dup5\n        /* \"#utility.yul\":1578:1656   */\n      tag_40\n      jump\t// in\n    tag_65:\n        /* \"#utility.yul\":1570:1656   */\n      swap1\n      pop\n        /* \"#utility.yul\":1350:1663   */\n      swap3\n      swap2\n      pop\n      pop\n      jump\t// out\n        /* \"#utility.yul\":1669:1746   */\n    tag_41:\n        /* \"#utility.yul\":1706:1713   */\n      0x00\n        /* \"#utility.yul\":1735:1740   */\n      dup2\n        /* \"#utility.yul\":1724:1740   */\n      swap1\n      pop\n        /* \"#utility.yul\":1669:1746   */\n      swap2\n      swap1\n      pop\n      jump\t// out\n        /* \"#utility.yul\":1752:1870   */\n    tag_42:\n        /* \"#utility.yul\":1839:1863   */\n      tag_68\n        /* \"#utility.yul\":1857:1862   */\n      dup2\n        /* \"#utility.yul\":1839:1863   */\n      tag_41\n      jump\t// in\n    tag_68:\n        /* \"#utility.yul\":1834:1837   */\n      dup3\n        /* \"#utility.yul\":1827:1864   */\n      mstore\n        /* \"#utility.yul\":1752:1870   */\n      pop\n      pop\n      jump\t// out\n        /* \"#utility.yul\":1876:2098   */\n    tag_19:\n        /* \"#utility.yul\":1969:1973   */\n      0x00\n        /* \"#utility.yul\":2007:2009   */\n      0x20\n        /* \"#utility.yul\":1996:2005   */\n      dup3\n        /* \"#utility.yul\":1992:2010   */\n      add\n        /* \"#utility.yul\":1984:2010   */\n      swap1\n      pop\n        /* \"#utility.yul\":2020:2091   */\n      tag_70\n        /* \"#utility.yul\":2088:2089   */\n      0x00\n        /* \"#utility.yul\":2077:2086   */\n      dup4\n        /* \"#utility.yul\":2073:2090   */\n      add\n        /* \"#utility.yul\":2064:2070   */\n      dup5\n        /* \"#utility.yul\":2020:2091   */\n      tag_42\n      jump\t// in\n    tag_70:\n        /* \"#utility.yul\":1876:2098   */\n      swap3\n      swap2\n      pop\n      pop\n      jump\t// out\n        /* \"#utility.yul\":2104:2180   */\n    tag_43:\n        /* \"#utility.yul\":2140:2147   */\n      0x00\n        /* \"#utility.yul\":2169:2174   */\n      dup2\n        /* \"#utility.yul\":2158:2174   */\n      swap1\n      pop\n        /* \"#utility.yul\":2104:2180   */\n      swap2\n      swap1\n      pop\n      jump\t// out\n        /* \"#utility.yul\":2186:2301   */\n    tag_44:\n        /* \"#utility.yul\":2271:2294   */\n      tag_73\n        /* \"#utility.yul\":2288:2293   */\n      dup2\n        /* \"#utility.yul\":2271:2294   */\n      tag_43\n      jump\t// in\n    tag_73:\n        /* \"#utility.yul\":2266:2269   */\n      dup3\n        /* \"#utility.yul\":2259:2295   */\n      mstore\n        /* \"#utility.yul\":2186:2301   */\n      pop\n      pop\n      jump\t// out\n        /* \"#utility.yul\":2307:2525   */\n    tag_23:\n        /* \"#utility.yul\":2398:2402   */\n      0x00\n        /* \"#utility.yul\":2436:2438   */\n      0x20\n        /* \"#utility.yul\":2425:2434   */\n      dup3\n        /* \"#utility.yul\":2421:2439   */\n      add\n        /* \"#utility.yul\":2413:2439   */\n      swap1\n      pop\n        /* \"#utility.yul\":2449:2518   */\n      tag_75\n        /* \"#utility.yul\":2515:2516   */\n      0x00\n        /* \"#utility.yul\":2504:2513   */\n      dup4\n        /* \"#utility.yul\":2500:2517   */\n      add\n        /* \"#utility.yul\":2491:2497   */\n      dup5\n        /* \"#utility.yul\":2449:2518   */\n      tag_44\n      jump\t// in\n    tag_75:\n        /* \"#utility.yul\":2307:2525   */\n      swap3\n      swap2\n      pop\n      pop\n      jump\t// out\n        /* \"#utility.yul\":2531:2657   */\n    tag_45:\n        /* \"#utility.yul\":2568:2575   */\n      0x00\n        /* \"#utility.yul\":2608:2650   */\n      0xffffffffffffffffffffffffffffffffffffffff\n        /* \"#utility.yul\":2601:2606   */\n      dup3\n        /* \"#utility.yul\":2597:2651   */\n      and\n        /* \"#utility.yul\":2586:2651   */\n      swap1\n      pop\n        /* \"#utility.yul\":2531:2657   */\n      swap2\n      swap1\n      pop\n      jump\t// out\n        /* \"#utility.yul\":2663:2759   */\n    tag_46:\n        /* \"#utility.yul\":2700:2707   */\n      0x00\n        /* \"#utility.yul\":2729:2753   */\n      tag_78\n        /* \"#utility.yul\":2747:2752   */\n      dup3\n        /* \"#utility.yul\":2729:2753   */\n      tag_45\n      jump\t// in\n    tag_78:\n        /* \"#utility.yul\":2718:2753   */\n      swap1\n      pop\n        /* \"#utility.yul\":2663:2759   */\n      swap2\n      swap1\n      pop\n      jump\t// out\n        /* \"#utility.yul\":2765:2883   */\n    tag_47:\n        /* \"#utility.yul\":2852:2876   */\n      tag_80\n        /* \"#utility.yul\":2870:2875   */\n      dup2\n        /* \"#utility.yul\":2852:2876   */\n      tag_46\n      jump\t// in\n    tag_80:\n        /* \"#utility.yul\":2847:2850   */\n      dup3\n        /* \"#utility.yul\":2840:2877   */\n      mstore\n        /* \"#utility.yul\":2765:2883   */\n      pop\n      pop\n      jump\t// out\n        /* \"#utility.yul\":2889:3111   */\n    tag_27:\n        /* \"#utility.yul\":2982:2986   */\n      0x00\n        /* \"#utility.yul\":3020:3022   */\n      0x20\n        /* \"#utility.yul\":3009:3018   */\n      dup3\n        /* \"#utility.yul\":3005:3023   */\n      add\n        /* \"#utility.yul\":2997:3023   */\n      swap1\n      pop\n        /* \"#utility.yul\":3033:3104   */\n      tag_82\n        /* \"#utility.yul\":3101:3102   */\n      0x00\n        /* \"#utility.yul\":3090:3099   */\n      dup4\n        /* \"#utility.yul\":3086:3103   */\n      add\n        /* \"#utility.yul\":3077:3083   */\n      dup5\n        /* \"#utility.yul\":3033:3104   */\n      tag_47\n      jump\t// in\n    tag_82:\n        /* \"#utility.yul\":2889:3111   */\n      swap3\n      swap2\n      pop\n      pop\n      jump\t// out\n        /* \"#utility.yul\":3117:3297   */\n    tag_48:\n        /* \"#utility.yul\":3165:3242   */\n      0x4e487b7100000000000000000000000000000000000000000000000000000000\n        /* \"#utility.yul\":3162:3163   */\n      0x00\n        /* \"#utility.yul\":3155:3243   */\n      mstore\n        /* \"#utility.yul\":3262:3266   */\n      0x22\n        /* \"#utility.yul\":3259:3260   */\n      0x04\n        /* \"#utility.yul\":3252:3267   */\n      mstore\n        /* \"#utility.yul\":3286:3290   */\n      0x24\n        /* \"#utility.yul\":3283:3284   */\n      0x00\n        /* \"#utility.yul\":3276:3291   */\n      revert\n        /* \"#utility.yul\":3303:3623   */\n    tag_29:\n        /* \"#utility.yul\":3347:3353   */\n      0x00\n        /* \"#utility.yul\":3384:3385   */\n      0x02\n        /* \"#utility.yul\":3378:3382   */\n      dup3\n        /* \"#utility.yul\":3374:3386   */\n      div\n        /* \"#utility.yul\":3364:3386   */\n      swap1\n      pop\n        /* \"#utility.yul\":3431:3432   */\n      0x01\n        /* \"#utility.yul\":3425:3429   */\n      dup3\n        /* \"#utility.yul\":3421:3433   */\n      and\n        /* \"#utility.yul\":3452:3470   */\n      dup1\n        /* \"#utility.yul\":3442:3523   */\n      tag_85\n      jumpi\n        /* \"#utility.yul\":3508:3512   */\n      0x7f\n        /* \"#utility.yul\":3500:3506   */\n      dup3\n        /* \"#utility.yul\":3496:3513   */\n      and\n        /* \"#utility.yul\":3486:3513   */\n      swap2\n      pop\n        /* \"#utility.yul\":3442:3523   */\n    tag_85:\n        /* \"#utility.yul\":3570:3572   */\n      0x20\n        /* \"#utility.yul\":3562:3568   */\n      dup3\n        /* \"#utility.yul\":3559:3573   */\n      lt\n        /* \"#utility.yul\":3539:3557   */\n      dup2\n        /* \"#utility.yul\":3536:3574   */\n      sub\n        /* \"#utility.yul\":3533:3617   */\n      tag_86\n      jumpi\n        /* \"#utility.yul\":3589:3607   */\n      tag_87\n      tag_48\n      jump\t// in\n    tag_87:\n        /* \"#utility.yul\":3533:3617   */\n    tag_86:\n        /* \"#utility.yul\":3354:3623   */\n      pop\n        /* \"#utility.yul\":3303:3623   */\n      swap2\n      swap1\n      pop\n      jump\t// out\n\n    auxdata: 0xa2646970667358221220941e4be9d621f38bbf1fa4e868387f92100818b5d4c8001a9941ba5f87d002cf64736f6c634300081b0033\n}\n",
				"bytecode": {
					"linkReferences": {},
					"object": "6080604052348015600e575f5ffd5b506103cc8061001c5f395ff3fe608060405234801561000f575f5ffd5b5060043610610054575f3560e01c806274530a1461005857806306fdde03146100765780636143c9dc14610094578063668086b0146100b2578063b29c62f4146100d0575b5f5ffd5b6100606100ee565b60405161006d91906101d6565b60405180910390f35b61007e6100ff565b60405161008b919061025f565b60405180910390f35b61009c61018b565b6040516100a99190610297565b60405180910390f35b6100ba610191565b6040516100c791906102c8565b60405180910390f35b6100d8610197565b6040516100e59190610320565b60405180910390f35b5f5f9054906101000a900460ff1681565b6003805461010c90610366565b80601f016020809104026020016040519081016040528092919081815260200182805461013890610366565b80156101835780601f1061015a57610100808354040283529160200191610183565b820191905f5260205f20905b81548152906001019060200180831161016657829003601f168201915b505050505081565b60015481565b60025481565b60045f9054906101000a900473ffffffffffffffffffffffffffffffffffffffff1681565b5f8115159050919050565b6101d0816101bc565b82525050565b5f6020820190506101e95f8301846101c7565b92915050565b5f81519050919050565b5f82825260208201905092915050565b8281835e5f83830152505050565b5f601f19601f8301169050919050565b5f610231826101ef565b61023b81856101f9565b935061024b818560208601610209565b61025481610217565b840191505092915050565b5f6020820190508181035f8301526102778184610227565b905092915050565b5f819050919050565b6102918161027f565b82525050565b5f6020820190506102aa5f830184610288565b92915050565b5f819050919050565b6102c2816102b0565b82525050565b5f6020820190506102db5f8301846102b9565b92915050565b5f73ffffffffffffffffffffffffffffffffffffffff82169050919050565b5f61030a826102e1565b9050919050565b61031a81610300565b82525050565b5f6020820190506103335f830184610311565b92915050565b7f4e487b71000000000000000000000000000000000000000000000000000000005f52602260045260245ffd5b5f600282049050600182168061037d57607f821691505b6020821081036103905761038f610339565b5b5091905056fea2646970667358221220941e4be9d621f38bbf1fa4e868387f92100818b5d4c8001a9941ba5f87d002cf64736f6c634300081b0033",
					"opcodes": "PUSH1 0x80 PUSH1 0x40 MSTORE CALLVALUE DUP1 ISZERO PUSH1 0xE JUMPI PUSH0 PUSH0 REVERT JUMPDEST POP PUSH2 0x3CC DUP1 PUSH2 0x1C PUSH0 CODECOPY PUSH0 RETURN INVALID PUSH1 0x80 PUSH1 0x40 MSTORE CALLVALUE DUP1 ISZERO PUSH2 0xF JUMPI PUSH0 PUSH0 REVERT JUMPDEST POP PUSH1 0x4 CALLDATASIZE LT PUSH2 0x54 JUMPI PUSH0 CALLDATALOAD PUSH1 0xE0 SHR DUP1 PUSH3 0x74530A EQ PUSH2 0x58 JUMPI DUP1 PUSH4 0x6FDDE03 EQ PUSH2 0x76 JUMPI DUP1 PUSH4 0x6143C9DC EQ PUSH2 0x94 JUMPI DUP1 PUSH4 0x668086B0 EQ PUSH2 0xB2 JUMPI DUP1 PUSH4 0xB29C62F4 EQ PUSH2 0xD0 JUMPI JUMPDEST PUSH0 PUSH0 REVERT JUMPDEST PUSH2 0x60 PUSH2 0xEE JUMP JUMPDEST PUSH1 0x40 MLOAD PUSH2 0x6D SWAP2 SWAP1 PUSH2 0x1D6 JUMP JUMPDEST PUSH1 0x40 MLOAD DUP1 SWAP2 SUB SWAP1 RETURN JUMPDEST PUSH2 0x7E PUSH2 0xFF JUMP JUMPDEST PUSH1 0x40 MLOAD PUSH2 0x8B SWAP2 SWAP1 PUSH2 0x25F JUMP JUMPDEST PUSH1 0x40 MLOAD DUP1 SWAP2 SUB SWAP1 RETURN JUMPDEST PUSH2 0x9C PUSH2 0x18B JUMP JUMPDEST PUSH1 0x40 MLOAD PUSH2 0xA9 SWAP2 SWAP1 PUSH2 0x297 JUMP JUMPDEST PUSH1 0x40 MLOAD DUP1 SWAP2 SUB SWAP1 RETURN JUMPDEST PUSH2 0xBA PUSH2 0x191 JUMP JUMPDEST PUSH1 0x40 MLOAD PUSH2 0xC7 SWAP2 SWAP1 PUSH2 0x2C8 JUMP JUMPDEST PUSH1 0x40 MLOAD DUP1 SWAP2 SUB SWAP1 RETURN JUMPDEST PUSH2 0xD8 PUSH2 0x197 JUMP JUMPDEST PUSH1 0x40 MLOAD PUSH2 0xE5 SWAP2 SWAP1 PUSH2 0x320 JUMP JUMPDEST PUSH1 0x40 MLOAD DUP1 SWAP2 SUB SWAP1 RETURN JUMPDEST PUSH0 PUSH0 SWAP1 SLOAD SWAP1 PUSH2 0x100 EXP SWAP1 DIV PUSH1 0xFF AND DUP2 JUMP JUMPDEST PUSH1 0x3 DUP1 SLOAD PUSH2 0x10C SWAP1 PUSH2 0x366 JUMP JUMPDEST DUP1 PUSH1 0x1F ADD PUSH1 0x20 DUP1 SWAP2 DIV MUL PUSH1 0x20 ADD PUSH1 0x40 MLOAD SWAP1 DUP2 ADD PUSH1 0x40 MSTORE DUP1 SWAP3 SWAP2 SWAP1 DUP2 DUP2 MSTORE PUSH1 0x20 ADD DUP3 DUP1 SLOAD PUSH2 0x138 SWAP1 PUSH2 0x366 JUMP JUMPDEST DUP1 ISZERO PUSH2 0x183 JUMPI DUP1 PUSH1 0x1F LT PUSH2 0x15A JUMPI PUSH2 0x100 DUP1 DUP4 SLOAD DIV MUL DUP4 MSTORE SWAP2 PUSH1 0x20 ADD SWAP2 PUSH2 0x183 JUMP JUMPDEST DUP3 ADD SWAP2 SWAP1 PUSH0 MSTORE PUSH1 0x20 PUSH0 KECCAK256 SWAP1 JUMPDEST DUP2 SLOAD DUP2 MSTORE SWAP1 PUSH1 0x1 ADD SWAP1 PUSH1 0x20 ADD DUP1 DUP4 GT PUSH2 0x166 JUMPI DUP3 SWAP1 SUB PUSH1 0x1F AND DUP3 ADD SWAP2 JUMPDEST POP POP POP POP POP DUP2 JUMP JUMPDEST PUSH1 0x1 SLOAD DUP2 JUMP JUMPDEST PUSH1 0x2 SLOAD DUP2 JUMP JUMPDEST PUSH1 0x4 PUSH0 SWAP1 SLOAD SWAP1 PUSH2 0x100 EXP SWAP1 DIV PUSH20 0xFFFFFFFFFFFFFFFFFFFFFFFFFFFFFFFFFFFFFFFF AND DUP2 JUMP JUMPDEST PUSH0 DUP2 ISZERO ISZERO SWAP1 POP SWAP2 SWAP1 POP JUMP JUMPDEST PUSH2 0x1D0 DUP2 PUSH2 0x1BC JUMP JUMPDEST DUP3 MSTORE POP POP JUMP JUMPDEST PUSH0 PUSH1 0x20 DUP3 ADD SWAP1 POP PUSH2 0x1E9 PUSH0 DUP4 ADD DUP5 PUSH2 0x1C7 JUMP JUMPDEST SWAP3 SWAP2 POP POP JUMP JUMPDEST PUSH0 DUP2 MLOAD SWAP1 POP SWAP2 SWAP1 POP JUMP JUMPDEST PUSH0 DUP3 DUP3 MSTORE PUSH1 0x20 DUP3 ADD SWAP1 POP SWAP3 SWAP2 POP POP JUMP JUMPDEST DUP3 DUP2 DUP4 MCOPY PUSH0 DUP4 DUP4 ADD MSTORE POP POP POP JUMP JUMPDEST PUSH0 PUSH1 0x1F NOT PUSH1 0x1F DUP4 ADD AND SWAP1 POP SWAP2 SWAP1 POP JUMP JUMPDEST PUSH0 PUSH2 0x231 DUP3 PUSH2 0x1EF JUMP JUMPDEST PUSH2 0x23B DUP2 DUP6 PUSH2 0x1F9 JUMP JUMPDEST SWAP4 POP PUSH2 0x24B DUP2 DUP6 PUSH1 0x20 DUP7 ADD PUSH2 0x209 JUMP JUMPDEST PUSH2 0x254 DUP2 PUSH2 0x217 JUMP JUMPDEST DUP5 ADD SWAP2 POP POP SWAP3 SWAP2 POP POP JUMP JUMPDEST PUSH0 PUSH1 0x20 DUP3 ADD SWAP1 POP DUP2 DUP2 SUB PUSH0 DUP4 ADD MSTORE PUSH2 0x277 DUP2 DUP5 PUSH2 0x227 JUMP JUMPDEST SWAP1 POP SWAP3 SWAP2 POP POP JUMP JUMPDEST PUSH0 DUP2 SWAP1 POP SWAP2 SWAP1 POP JUMP JUMPDEST PUSH2 0x291 DUP2 PUSH2 0x27F JUMP JUMPDEST DUP3 MSTORE POP POP JUMP JUMPDEST PUSH0 PUSH1 0x20 DUP3 ADD SWAP1 POP PUSH2 0x2AA PUSH0 DUP4 ADD DUP5 PUSH2 0x288 JUMP JUMPDEST SWAP3 SWAP2 POP POP JUMP JUMPDEST PUSH0 DUP2 SWAP1 POP SWAP2 SWAP1 POP JUMP JUMPDEST PUSH2 0x2C2 DUP2 PUSH2 0x2B0 JUMP JUMPDEST DUP3 MSTORE POP POP JUMP JUMPDEST PUSH0 PUSH1 0x20 DUP3 ADD SWAP1 POP PUSH2 0x2DB PUSH0 DUP4 ADD DUP5 PUSH2 0x2B9 JUMP JUMPDEST SWAP3 SWAP2 POP POP JUMP JUMPDEST PUSH0 PUSH20 0xFFFFFFFFFFFFFFFFFFFFFFFFFFFFFFFFFFFFFFFF DUP3 AND SWAP1 POP SWAP2 SWAP1 POP JUMP JUMPDEST PUSH0 PUSH2 0x30A DUP3 PUSH2 0x2E1 JUMP JUMPDEST SWAP1 POP SWAP2 SWAP1 POP JUMP JUMPDEST PUSH2 0x31A DUP2 PUSH2 0x300 JUMP JUMPDEST DUP3 MSTORE POP POP JUMP JUMPDEST PUSH0 PUSH1 0x20 DUP3 ADD SWAP1 POP PUSH2 0x333 PUSH0 DUP4 ADD DUP5 PUSH2 0x311 JUMP JUMPDEST SWAP3 SWAP2 POP POP JUMP JUMPDEST PUSH32 0x4E487B7100000000000000000000000000000000000000000000000000000000 PUSH0 MSTORE PUSH1 0x22 PUSH1 0x4 MSTORE PUSH1 0x24 PUSH0 REVERT JUMPDEST PUSH0 PUSH1 0x2 DUP3 DIV SWAP1 POP PUSH1 0x1 DUP3 AND DUP1 PUSH2 0x37D JUMPI PUSH1 0x7F DUP3 AND SWAP2 POP JUMPDEST PUSH1 0x20 DUP3 LT DUP2 SUB PUSH2 0x390 JUMPI PUSH2 0x38F PUSH2 0x339 JUMP JUMPDEST JUMPDEST POP SWAP2 SWAP1 POP JUMP INVALID LOG2 PUSH5 0x6970667358 0x22 SLT KECCAK256 SWAP5 0x1E 0x4B 0xE9 0xD6 0x21 RETURN DUP12 0xBF 0x1F LOG4 0xE8 PUSH9 0x387F92100818B5D4C8 STOP BYTE SWAP10 COINBASE 0xBA PUSH0 DUP8 0xD0 MUL 0xCF PUSH5 0x736F6C6343 STOP ADDMOD SHL STOP CALLER "
				},
				"gasEstimates": {
					"creation": {
						"codeDepositCost": "194400",
						"executionCost": "236",
						"totalCost": "194636"
					},
					"external": {
						"intNumber()": "2469",
						"isTrue()": "2443",
						"myAccount()": "2574",
						"name()": "infinite",
						"uintNumber()": "2447"
					}
				},
				"methodIdentifiers": {
					"intNumber()": "668086b0",
					"isTrue()": "0074530a",
					"myAccount()": "b29c62f4",
					"name()": "06fdde03",
					"uintNumber()": "6143c9dc"
				}
			},
			"storageLayout": {
				"storage": [
					{
						"astId": 3,
						"contract": "SimpleStorage.sol:SimpleStorage",
						"label": "isTrue",
						"offset": 0,
						"slot": "0",
						"type": "t_bool"
					},
					{
						"astId": 5,
						"contract": "SimpleStorage.sol:SimpleStorage",
						"label": "uintNumber",
						"offset": 0,
						"slot": "1",
						"type": "t_uint256"
					},
					{
						"astId": 7,
						"contract": "SimpleStorage.sol:SimpleStorage",
						"label": "intNumber",
						"offset": 0,
						"slot": "2",
						"type": "t_int256"
					},
					{
						"astId": 9,
						"contract": "SimpleStorage.sol:SimpleStorage",
						"label": "name",
						"offset": 0,
						"slot": "3",
						"type": "t_string_storage"
					},
					{
						"astId": 11,
						"contract": "SimpleStorage.sol:SimpleStorage",
						"label": "myAccount",
						"offset": 0,
						"slot": "4",
						"type": "t_address"
					}
				],
				"types": {
					"t_address": {
						"encoding": "inplace",
						"label": "address",
						"numberOfBytes": "20"
					},
					"t_bool": {
						"encoding": "inplace",
						"label": "bool",
						"numberOfBytes": "1"
					},
					"t_int256": {
						"encoding": "inplace",
						"label": "int256",
						"numberOfBytes": "32"
					},
					"t_string_storage": {
						"encoding": "bytes",
						"label": "string",
						"numberOfBytes": "32"
					},
					"t_uint256": {
						"encoding": "inplace",
						"label": "uint256",
						"numberOfBytes": "32"
					}
				}
			},
			"userdoc": {
				"kind": "user",
				"methods": {},
				"version": 1
			}
		}
	}
}